{
  "contractName": "VotingOffice",
  "abi": [
    {
      "constant": true,
      "inputs": [
        {
          "name": "_interfaceId",
          "type": "bytes4"
        }
      ],
      "name": "supportsInterface",
      "outputs": [
        {
          "name": "",
          "type": "bool"
        }
      ],
      "payable": false,
      "stateMutability": "view",
      "type": "function"
    },
    {
      "constant": true,
      "inputs": [
        {
          "name": "_operator",
          "type": "address"
        },
        {
          "name": "_role",
          "type": "string"
        }
      ],
      "name": "checkRole",
      "outputs": [],
      "payable": false,
      "stateMutability": "view",
      "type": "function"
    },
    {
      "constant": true,
      "inputs": [],
      "name": "ROLE_WHITELISTED",
      "outputs": [
        {
          "name": "",
          "type": "string"
        }
      ],
      "payable": false,
      "stateMutability": "view",
      "type": "function"
    },
    {
      "constant": true,
      "inputs": [],
      "name": "InterfaceId_ERC165",
      "outputs": [
        {
          "name": "",
          "type": "bytes4"
        }
      ],
      "payable": false,
      "stateMutability": "view",
      "type": "function"
    },
    {
      "constant": true,
      "inputs": [
        {
          "name": "_operator",
          "type": "address"
        },
        {
          "name": "_role",
          "type": "string"
        }
      ],
      "name": "hasRole",
      "outputs": [
        {
          "name": "",
          "type": "bool"
        }
      ],
      "payable": false,
      "stateMutability": "view",
      "type": "function"
    },
    {
      "constant": false,
      "inputs": [
        {
          "name": "_operators",
          "type": "address[]"
        }
      ],
      "name": "removeAddressesFromWhitelist",
      "outputs": [],
      "payable": false,
      "stateMutability": "nonpayable",
      "type": "function"
    },
    {
      "constant": false,
      "inputs": [
        {
          "name": "_operator",
          "type": "address"
        }
      ],
      "name": "removeAddressFromWhitelist",
      "outputs": [],
      "payable": false,
      "stateMutability": "nonpayable",
      "type": "function"
    },
    {
      "constant": true,
      "inputs": [],
      "name": "URIprefix",
      "outputs": [
        {
          "name": "",
          "type": "string"
        }
      ],
      "payable": false,
      "stateMutability": "view",
      "type": "function"
    },
    {
      "constant": false,
      "inputs": [],
      "name": "renounceOwnership",
      "outputs": [],
      "payable": false,
      "stateMutability": "nonpayable",
      "type": "function"
    },
    {
      "constant": false,
      "inputs": [
        {
          "name": "_operator",
          "type": "address"
        }
      ],
      "name": "addAddressToWhitelist",
      "outputs": [],
      "payable": false,
      "stateMutability": "nonpayable",
      "type": "function"
    },
    {
      "constant": true,
      "inputs": [],
      "name": "owner",
      "outputs": [
        {
          "name": "",
          "type": "address"
        }
      ],
      "payable": false,
      "stateMutability": "view",
      "type": "function"
    },
    {
      "constant": true,
      "inputs": [
        {
          "name": "_operator",
          "type": "address"
        }
      ],
      "name": "whitelist",
      "outputs": [
        {
          "name": "",
          "type": "bool"
        }
      ],
      "payable": false,
      "stateMutability": "view",
      "type": "function"
    },
    {
      "constant": false,
      "inputs": [
        {
          "name": "_operators",
          "type": "address[]"
        }
      ],
      "name": "addAddressesToWhitelist",
      "outputs": [],
      "payable": false,
      "stateMutability": "nonpayable",
      "type": "function"
    },
    {
      "constant": false,
      "inputs": [
        {
          "name": "_newOwner",
          "type": "address"
        }
      ],
      "name": "transferOwnership",
      "outputs": [],
      "payable": false,
      "stateMutability": "nonpayable",
      "type": "function"
    },
    {
      "inputs": [
        {
          "name": "__voterRegistry",
          "type": "address"
        },
        {
          "name": "_URIprefix",
          "type": "string"
        }
      ],
      "payable": false,
      "stateMutability": "nonpayable",
      "type": "constructor"
    },
    {
      "anonymous": false,
      "inputs": [
        {
          "indexed": false,
          "name": "_votingId",
          "type": "uint256"
        }
      ],
      "name": "createdVote",
      "type": "event"
    },
    {
      "anonymous": false,
      "inputs": [
        {
          "indexed": false,
          "name": "_votingId",
          "type": "uint256"
        },
        {
          "indexed": false,
          "name": "_voter",
          "type": "address"
        }
      ],
      "name": "voteReceived",
      "type": "event"
    },
    {
      "anonymous": false,
      "inputs": [
        {
          "indexed": true,
          "name": "operator",
          "type": "address"
        },
        {
          "indexed": false,
          "name": "role",
          "type": "string"
        }
      ],
      "name": "RoleAdded",
      "type": "event"
    },
    {
      "anonymous": false,
      "inputs": [
        {
          "indexed": true,
          "name": "operator",
          "type": "address"
        },
        {
          "indexed": false,
          "name": "role",
          "type": "string"
        }
      ],
      "name": "RoleRemoved",
      "type": "event"
    },
    {
      "anonymous": false,
      "inputs": [
        {
          "indexed": true,
          "name": "previousOwner",
          "type": "address"
        }
      ],
      "name": "OwnershipRenounced",
      "type": "event"
    },
    {
      "anonymous": false,
      "inputs": [
        {
          "indexed": true,
          "name": "previousOwner",
          "type": "address"
        },
        {
          "indexed": true,
          "name": "newOwner",
          "type": "address"
        }
      ],
      "name": "OwnershipTransferred",
      "type": "event"
    },
    {
      "constant": true,
      "inputs": [],
      "name": "getVotersRegistry",
      "outputs": [
        {
          "name": "",
          "type": "address"
        }
      ],
      "payable": false,
      "stateMutability": "view",
      "type": "function"
    },
    {
      "constant": false,
      "inputs": [
        {
          "name": "_title",
          "type": "string"
        },
        {
          "name": "_options",
          "type": "uint8"
        },
        {
          "name": "_end",
          "type": "uint256"
        },
        {
          "name": "_digest",
          "type": "bytes32"
        }
      ],
      "name": "newVoting",
      "outputs": [
        {
          "name": "",
          "type": "uint256"
        }
      ],
      "payable": false,
      "stateMutability": "nonpayable",
      "type": "function"
    },
    {
      "constant": true,
      "inputs": [
        {
          "name": "_id",
          "type": "uint256"
        }
      ],
      "name": "votingTitle",
      "outputs": [
        {
          "name": "",
          "type": "string"
        }
      ],
      "payable": false,
      "stateMutability": "view",
      "type": "function"
    },
    {
      "constant": true,
      "inputs": [
        {
          "name": "_id",
          "type": "uint256"
        }
      ],
      "name": "votingEnd",
      "outputs": [
        {
          "name": "",
          "type": "uint256"
        }
      ],
      "payable": false,
      "stateMutability": "view",
      "type": "function"
    },
    {
      "constant": true,
      "inputs": [
        {
          "name": "_id",
          "type": "uint256"
        }
      ],
      "name": "votingDigest",
      "outputs": [
        {
          "name": "",
          "type": "bytes32"
        }
      ],
      "payable": false,
      "stateMutability": "view",
      "type": "function"
    },
    {
      "constant": true,
      "inputs": [
        {
          "name": "_id",
          "type": "uint256"
        }
      ],
      "name": "isActive",
      "outputs": [
        {
          "name": "",
          "type": "bool"
        }
      ],
      "payable": false,
      "stateMutability": "view",
      "type": "function"
    },
    {
      "constant": false,
      "inputs": [
        {
          "name": "_id",
          "type": "uint256"
        },
        {
          "name": "_option",
          "type": "uint8"
        }
      ],
      "name": "vote",
      "outputs": [],
      "payable": false,
      "stateMutability": "nonpayable",
      "type": "function"
    },
    {
      "constant": true,
      "inputs": [
        {
          "name": "_id",
          "type": "uint256"
        }
      ],
      "name": "totalVotes",
      "outputs": [
        {
          "name": "",
          "type": "uint256"
        }
      ],
      "payable": false,
      "stateMutability": "view",
      "type": "function"
    },
    {
      "constant": true,
      "inputs": [
        {
          "name": "_id",
          "type": "uint256"
        }
      ],
      "name": "interimResults",
      "outputs": [
        {
          "name": "",
          "type": "uint256[]"
        }
      ],
      "payable": false,
      "stateMutability": "view",
      "type": "function"
    },
    {
      "constant": true,
      "inputs": [
        {
          "name": "_id",
          "type": "uint256"
        }
      ],
      "name": "finalResults",
      "outputs": [
        {
          "name": "",
          "type": "uint256[]"
        }
      ],
      "payable": false,
      "stateMutability": "view",
      "type": "function"
    }
  ],
  "bytecode": "0x60806040523480156200001157600080fd5b5060405162001ff738038062001ff7833981016040528051602082015190910160008080806200006a7f01ffc9a70000000000000000000000000000000000000000000000000000000064010000000062000472810204565b60018054600160a060020a0319908116331790915560038054600160a060020a038916921682179055604080517f01ffc9a7000000000000000000000000000000000000000000000000000000008082526004820181905291518997509195507fffffffff0000000000000000000000000000000000000000000000000000000094506301ffc9a79160248083019260209291908290030181600087803b1580156200011557600080fd5b505af11580156200012a573d6000803e3d6000fd5b505050506040513d60208110156200014157600080fd5b50511515620001c657604080517f08c379a0000000000000000000000000000000000000000000000000000000008152602060048201526029602482015260008051602062001fd783398151915260448201527f6e74204552433136350000000000000000000000000000000000000000000000606482015290519081900360840190fd5b604080517f01ffc9a70000000000000000000000000000000000000000000000000000000081527fffffffff00000000000000000000000000000000000000000000000000000000841660048201529051600160a060020a038616916301ffc9a79160248083019260209291908290030181600087803b1580156200024a57600080fd5b505af11580156200025f573d6000803e3d6000fd5b505050506040513d60208110156200027657600080fd5b505115620002fa57604080517f08c379a0000000000000000000000000000000000000000000000000000000008152602060048201526029602482015260008051602062001fd783398151915260448201527f6e74204552433136350000000000000000000000000000000000000000000000606482015290519081900360840190fd5b50604080517f01ffc9a70000000000000000000000000000000000000000000000000000000081527f312b5b9400000000000000000000000000000000000000000000000000000000600482018190529151600160a060020a038616916301ffc9a79160248083019260209291908290030181600087803b1580156200037f57600080fd5b505af115801562000394573d6000803e3d6000fd5b505050506040513d6020811015620003ab57600080fd5b505115156200043057604080517f08c379a0000000000000000000000000000000000000000000000000000000008152602060048201526030602482015260008051602062001fd783398151915260448201527f6e7420566f746572526567697374727900000000000000000000000000000000606482015290519081900360840190fd5b84516200044590600690602088019062000695565b506001546200046690600160a060020a0316640100000000620004df810204565b5050505050506200073a565b7fffffffff000000000000000000000000000000000000000000000000000000008082161415620004a257600080fd5b7fffffffff00000000000000000000000000000000000000000000000000000000166000908152602081905260409020805460ff19166001179055565b600154600160a060020a03163314620004f757600080fd5b62000547816040805190810160405280600981526020017f77686974656c69737400000000000000000000000000000000000000000000008152506200054a640100000000026401000000009004565b50565b620005c6826002836040518082805190602001908083835b60208310620005835780518252601f19909201916020918201910162000562565b51815160209384036101000a60001901801990921691161790529201948552506040519384900301909220929150506401000000006200067081026200172a1704565b81600160a060020a03167fbfec83d64eaa953f2708271a023ab9ee82057f8f3578d548c1a4ba0b5b700489826040518080602001828103825283818151815260200191508051906020019080838360005b838110156200063157818101518382015260200162000617565b50505050905090810190601f1680156200065f5780820380516001836020036101000a031916815260200191505b509250505060405180910390a25050565b600160a060020a0316600090815260209190915260409020805460ff19166001179055565b828054600181600116156101000203166002900490600052602060002090601f016020900481019282601f10620006d857805160ff191683800117855562000708565b8280016001018555821562000708579182015b8281111562000708578251825591602001919060010190620006eb565b50620007169291506200071a565b5090565b6200073791905b8082111562000716576000815560010162000721565b90565b61188d806200074a6000396000f30060806040526004361061013d5763ffffffff7c010000000000000000000000000000000000000000000000000000000060003504166301ffc9a781146101425780630988ca8c1461018d57806311387754146101f657806318b919e91461025e57806319e6e158146102e857806319fa8f5014610312578063217fe6c61461035957806324953eaa146103c0578063262b11cf14610415578063286dd3f51461042d57806357c8a8ef1461044e578063640caa2814610466578063715018a61461047b5780637b9417c81461049057806382afd23b146104b157806386ecc81b146104c95780638da5cb5b146104e1578063943e821614610512578063981494eb146105305780639b19251a146105455780639f8feb6c14610566578063e2ec6ec314610594578063f2fde38b146105e9578063f4a6b0c51461060a575b600080fd5b34801561014e57600080fd5b506101797bffffffffffffffffffffffffffffffffffffffffffffffffffffffff1960043516610622565b604080519115158252519081900360200190f35b34801561019957600080fd5b5060408051602060046024803582810135601f81018590048502860185019096528585526101f4958335600160a060020a03169536956044949193909101919081908401838280828437509497506106569650505050505050565b005b34801561020257600080fd5b5061020e6004356106c4565b60408051602080825283518183015283519192839290830191858101910280838360005b8381101561024a578181015183820152602001610232565b505050509050019250505060405180910390f35b34801561026a57600080fd5b506102736107d4565b6040805160208082528351818301528351919283929083019185019080838360005b838110156102ad578181015183820152602001610295565b50505050905090810190601f1680156102da5780820380516001836020036101000a031916815260200191505b509250505060405180910390f35b3480156102f457600080fd5b506103006004356107f9565b60408051918252519081900360200190f35b34801561031e57600080fd5b5061032761085e565b604080517bffffffffffffffffffffffffffffffffffffffffffffffffffffffff199092168252519081900360200190f35b34801561036557600080fd5b5060408051602060046024803582810135601f8101859004850286018501909652858552610179958335600160a060020a03169536956044949193909101919081908401838280828437509497506108829650505050505050565b3480156103cc57600080fd5b50604080516020600480358082013583810280860185019096528085526101f4953695939460249493850192918291850190849080828437509497506108f59650505050505050565b34801561042157600080fd5b5061020e600435610944565b34801561043957600080fd5b506101f4600160a060020a0360043516610993565b34801561045a57600080fd5b506103006004356109da565b34801561047257600080fd5b50610273610a40565b34801561048757600080fd5b506101f4610ace565b34801561049c57600080fd5b506101f4600160a060020a0360043516610b3c565b3480156104bd57600080fd5b50610179600435610b80565b3480156104d557600080fd5b50610273600435610c9d565b3480156104ed57600080fd5b506104f6610d81565b60408051600160a060020a039092168252519081900360200190f35b34801561051e57600080fd5b506101f460043560ff60243516610d90565b34801561053c57600080fd5b506104f66110f7565b34801561055157600080fd5b50610179600160a060020a0360043516611107565b34801561057257600080fd5b50610300602460048035828101929101359060ff90351660443560643561113c565b3480156105a057600080fd5b50604080516020600480358082013583810280860185019096528085526101f4953695939460249493850192918291850190849080828437509497506113989650505050505050565b3480156105f557600080fd5b506101f4600160a060020a03600435166113e7565b34801561061657600080fd5b50610300600435611407565b7bffffffffffffffffffffffffffffffffffffffffffffffffffffffff191660009081526020819052604090205460ff1690565b6106c0826002836040518082805190602001908083835b6020831061068c5780518252601f19909201916020918201910161066d565b51815160209384036101000a600019018019909216911617905292019485525060405193849003019092209291505061146c565b5050565b60606106cf82611481565b1515610713576040805160e560020a62461bcd0281526020600482015260166024820152600080516020611842833981519152604482015290519081900360640190fd5b61071c82610b80565b15610771576040805160e560020a62461bcd02815260206004820152601c60248201527f5468697320766f74696e67206973207374696c6c206f6e676f696e6700000000604482015290519081900360640190fd5b600082815260046020908152604091829020600201805483518184028101840190945280845290918301828280156107c857602002820191906000526020600020905b8154815260200190600101908083116107b4575b50505050509050919050565b6040805180820190915260098152600080516020611822833981519152602082015281565b600061080482611481565b1515610848576040805160e560020a62461bcd0281526020600482015260166024820152600080516020611842833981519152604482015290519081900360640190fd5b5060009081526004602052604090206001015490565b7f01ffc9a70000000000000000000000000000000000000000000000000000000081565b60006108ee836002846040518082805190602001908083835b602083106108ba5780518252601f19909201916020918201910161089b565b51815160209384036101000a6000190180199092169116179052920194855250604051938490030190922092915050611488565b9392505050565b600154600090600160a060020a0316331461090f57600080fd5b5060005b81518110156106c05761093c828281518110151561092d57fe5b90602001906020020151610993565b600101610913565b606061094f82611481565b1515610771576040805160e560020a62461bcd0281526020600482015260166024820152600080516020611842833981519152604482015290519081900360640190fd5b600154600160a060020a031633146109aa57600080fd5b6109d7816040805190810160405280600981526020016000805160206118228339815191528152506114a7565b50565b60006109e582611481565b1515610a29576040805160e560020a62461bcd0281526020600482015260166024820152600080516020611842833981519152604482015290519081900360640190fd5b506000908152600460208190526040909120015490565b6006805460408051602060026001851615610100026000190190941693909304601f81018490048402820184019092528181529291830182828015610ac65780601f10610a9b57610100808354040283529160200191610ac6565b820191906000526020600020905b815481529060010190602001808311610aa957829003601f168201915b505050505081565b600154600160a060020a03163314610ae557600080fd5b600154604051600160a060020a03909116907ff8df31144d9c2f0f6b59d69b8b98abd5459d07f2742c4df920b25aae33c6482090600090a26001805473ffffffffffffffffffffffffffffffffffffffff19169055565b600154600160a060020a03163314610b5357600080fd5b6109d7816040805190810160405280600981526020016000805160206118228339815191528152506115b8565b6000610b8b82611481565b1515610bcf576040805160e560020a62461bcd0281526020600482015260166024820152600080516020611842833981519152604482015290519081900360640190fd5b600360009054906101000a9004600160a060020a0316600160a060020a03166384865b666040518163ffffffff167c0100000000000000000000000000000000000000000000000000000000028152600401602060405180830381600087803b158015610c3b57600080fd5b505af1158015610c4f573d6000803e3d6000fd5b505050506040513d6020811015610c6557600080fd5b50516000838152600460205260409020600101541080610c9657506000828152600460205260409020600301544310155b1592915050565b6060610ca882611481565b1515610cec576040805160e560020a62461bcd0281526020600482015260166024820152600080516020611842833981519152604482015290519081900360640190fd5b60008281526004602090815260409182902080548351601f6002600019610100600186161502019093169290920491820184900484028101840190945280845290918301828280156107c85780601f10610d54576101008083540402835291602001916107c8565b820191906000526020600020905b815481529060010190602001808311610d625750939695505050505050565b600154600160a060020a031681565b610d9982611481565b1515610ddd576040805160e560020a62461bcd0281526020600482015260166024820152600080516020611842833981519152604482015290519081900360640190fd5b610de682610b80565b1515610e3c576040805160e560020a62461bcd02815260206004820152601760248201527f5468697320766f74696e672069732066696e6973686564000000000000000000604482015290519081900360640190fd5b60008281526004602052604090206002015460ff821610610ea7576040805160e560020a62461bcd02815260206004820152601a60248201527f54686973206f7074696f6e20646f6573206e6f74206578697374000000000000604482015290519081900360640190fd5b600082815260046020908152604080832033845260050190915290205460ff1615610f42576040805160e560020a62461bcd02815260206004820152603060248201527f596f7520616c726561647920766f746564206f6e20746869732069737375652e60448201527f20566f746573206172652066696e616c00000000000000000000000000000000606482015290519081900360840190fd5b600354604080517fc3c5a5470000000000000000000000000000000000000000000000000000000081523360048201529051600160a060020a039092169163c3c5a547916024808201926020929091908290030181600087803b158015610fa857600080fd5b505af1158015610fbc573d6000803e3d6000fd5b505050506040513d6020811015610fd257600080fd5b50511515611050576040805160e560020a62461bcd02815260206004820152602d60248201527f596f7520617265206e6f74207265676973746572656420746f20766f7465206960448201527f6e2074686973206f666669636500000000000000000000000000000000000000606482015290519081900360840190fd5b6000828152600460205260409020600180820180549091019055600201805460ff831690811061107c57fe5b6000918252602080832090910180546001908101909155848352600482526040808420338086526005909101845293819020805460ff191690921790915580518581529182019290925281517f4693464494e665299ce6fa76e6ba6a8d5b8951f9c610aac91ac363920fa9e038929181900390910190a15050565b600354600160a060020a03165b90565b600061113682604080519081016040528060098152602001600080516020611822833981519152815250610882565b92915050565b600060603361116e81604080519081016040528060098152602001600080516020611822833981519152815250610656565b600160ff8716116111ef576040805160e560020a62461bcd02815260206004820152602860248201527f566f746573206e656564206174206c656173742074776f20706f737369626c6560448201527f20616e7377657273000000000000000000000000000000000000000000000000606482015290519081900360840190fd5b43851161126c576040805160e560020a62461bcd02815260206004820152603360248201527f456e6420626c6f636b206e756d626572206973206c6f7765722064616e6e206360448201527f757272656e7420626c6f636b206e756d62657200000000000000000000000000606482015290519081900360840190fd5b8560ff16604051908082528060200260200182016040528015611299578160200160208202803883390190505b506040805160c06020601f8c01819004028201810190925260a081018a81529294509182918b908b90819085018382808284375050509284525050600060208084018290526040808501889052606085018b905260809094018990526005548252600481529290208351805191936113169350849291019061174f565b5060208281015160018301556040830151805161133992600285019201906117cd565b5060608201516003820155608090910151600490910155600580546001810190915560408051918252517f01276f2f434f6d1f91c3b706d53d69c31891a5f1894935cd86aa58f76c180fdd9181900360200190a1505095945050505050565b600154600090600160a060020a031633146113b257600080fd5b5060005b81518110156106c0576113df82828151811015156113d057fe5b90602001906020020151610b3c565b6001016113b6565b600154600160a060020a031633146113fe57600080fd5b6109d78161168a565b600061141282611481565b1515611456576040805160e560020a62461bcd0281526020600482015260166024820152600080516020611842833981519152604482015290519081900360640190fd5b5060009081526004602052604090206003015490565b6114768282611488565b15156106c057600080fd5b6005541190565b600160a060020a03166000908152602091909152604090205460ff1690565b611511826002836040518082805190602001908083835b602083106114dd5780518252601f1990920191602091820191016114be565b51815160209384036101000a6000190180199092169116179052920194855250604051938490030190922092915050611708565b81600160a060020a03167fd211483f91fc6eff862467f8de606587a30c8fc9981056f051b897a418df803a826040518080602001828103825283818151815260200191508051906020019080838360005b8381101561157a578181015183820152602001611562565b50505050905090810190601f1680156115a75780820380516001836020036101000a031916815260200191505b509250505060405180910390a25050565b611622826002836040518082805190602001908083835b602083106115ee5780518252601f1990920191602091820191016115cf565b51815160209384036101000a600019018019909216911617905292019485525060405193849003019092209291505061172a565b81600160a060020a03167fbfec83d64eaa953f2708271a023ab9ee82057f8f3578d548c1a4ba0b5b700489826040518080602001828103825283818151815260200191508051906020019080838360008381101561157a578181015183820152602001611562565b600160a060020a038116151561169f57600080fd5b600154604051600160a060020a038084169216907f8be0079c531659141344cd1fd0a4f28419497f9722a3daafe3b4186f6b6457e090600090a36001805473ffffffffffffffffffffffffffffffffffffffff1916600160a060020a0392909216919091179055565b600160a060020a0316600090815260209190915260409020805460ff19169055565b600160a060020a0316600090815260209190915260409020805460ff19166001179055565b828054600181600116156101000203166002900490600052602060002090601f016020900481019282601f1061179057805160ff19168380011785556117bd565b828001600101855582156117bd579182015b828111156117bd5782518255916020019190600101906117a2565b506117c9929150611807565b5090565b8280548282559060005260206000209081019282156117bd57916020028201828111156117bd5782518255916020019190600101906117a2565b61110491905b808211156117c9576000815560010161180d560077686974656c6973740000000000000000000000000000000000000000000000566f74696e6720646f6573206e6f742065786973742e00000000000000000000a165627a7a7230582055d89c6ca6d74168fc7a9814a8885e510379a11450978d609c1e662ea6f865d7002954617267657420636f6e747261637420646f6573206e6f7420696d706c656d65",
  "source": "pragma solidity ^0.4.24;\n\nimport \"openzeppelin-solidity/contracts/introspection/SupportsInterfaceWithLookup.sol\";\nimport \"openzeppelin-solidity/contracts/access/Whitelist.sol\";\nimport \"./interfaces/VoterRegistry.sol\";\n\n/// @title Voting Office\n/// @dev Contract to manage multiple votings belonging to one registry\ncontract VotingOffice is SupportsInterfaceWithLookup, Whitelist{\n  //The registry this contract is connected to\n  VoterRegistry internal _voterRegistry;\n\n  //Mapping of IDs to votings\n  mapping(uint256 => Voting) internal votings;\n\n  //Id that is assigned to the next voting created. Should also always equal the total number of votings\n  uint256 internal nextId;\n\n  //Prefix that is used to compute URIs\n  string public URIprefix;\n\n  //Struct is comprised of all information about a voting\n  struct Voting {\n    string title;         //Title of the voting\n    uint256 totalVotes;   //Total number of votes for this voting\n    uint256[] votes;      //An array of votes per possible answer\n    uint256 end;          //Block number at which the voting is closed\n    bytes32 digest;       //SHA256 digest of the question and all answers (comma seperated list)\n\n    //Stores for each address whether its vote was recorded here:\n    mapping(address => bool) voters;\n  }\n\n  /// @dev This emits whenever a new voting is created.\n  ///  Can be used to return the voting id through a listener (see test)\n  event createdVote(\n    uint256 _votingId\n  );\n\n  /// @dev This emits whenever a vote is sucessfully submitted\n  event voteReceived(\n    uint256 _votingId,\n    address _voter\n  );\n\n  constructor(address __voterRegistry, string _URIprefix)\n    public\n  {\n    //Instantiates registry as both, RC165 interface and registry\n    ERC165 _ERC165;\n    _voterRegistry = VoterRegistry(__voterRegistry);\n    _ERC165 = ERC165(__voterRegistry);\n\n    //Checks target contract for ERC165 interface introspection (positive and negative\n    bytes4 interfaceId_ERC165 = 0x01ffc9a7;\n    bytes4 interfaceId_invalid = 0xffffffff;\n    require(_ERC165.supportsInterface(interfaceId_ERC165), \"Target contract does not implement ERC165\");\n    require(!_ERC165.supportsInterface(interfaceId_invalid), \"Target contract does not implement ERC165\");\n\n    //Checks target contract for VoterRegistry interface\n    bytes4 interfaceId_VoterRegistry = 0x312b5b94;\n    require(_ERC165.supportsInterface(interfaceId_VoterRegistry), \"Target contract does not implement VoterRegistry\");\n\n    //Stores URI prefix to compute URIs later on\n    URIprefix = _URIprefix;\n\n    //Adds the contract creator to the whitelist so that she can create new votings\n    addAddressToWhitelist(owner);\n  }\n\n  /// @notice Reads the address of the corresponding registry\n  /// @return Address of the VoterRegistry this office belongs to\n  function getVotersRegistry() external view returns (address) {\n    return _voterRegistry;\n  }\n\n  /// @notice Starts a new voting\n  /// @param _title Title of the new voting\n  /// @param _options Number of answers that are possible for the new voting\n  /// @param _end Block number at which the voting is closed\n  /// @param _digest SHA256 digest of the question and all answers (in a comma seperated list)\n  function newVoting(\n    string _title,\n    uint8 _options,\n    uint256 _end,\n    bytes32 _digest\n  )\n    external\n    onlyIfWhitelisted(msg.sender)\n    returns (uint256)\n  {\n    require(_options > 1, \"Votes need at least two possible answers\");\n    require(_end > block.number, \"End block number is lower dann current block number\");\n\n    //Stores an array with length = number of possible answers to record votes\n    uint256[] memory votesArray= new uint256[](_options);\n\n    //Stores the new voting\n    votings[nextId] = Voting(_title, 0, votesArray, _end, _digest);\n\n    //Emits event and increments nextId\n    emit createdVote(nextId++);\n  }\n\n  /// @notice Reads the title of a voting\n  /// @param _id ID of the voting\n  /// @return Title of the voting\n  function votingTitle(uint256 _id) external view returns(string) {\n    require(isValidId(_id), \"Voting does not exist.\");\n\n    return votings[_id].title;\n  }\n\n  /// @notice Reads the block number at which the voting is closed\n  /// @param _id ID of the voting\n  /// @return Block number at which the voting is closed\n  function votingEnd(uint256 _id) external view returns(uint256) {\n    require(isValidId(_id), \"Voting does not exist.\");\n\n    return votings[_id].end;\n  }\n\n  /// @notice Reads the digest of the question and all possible answers\n  /// @param _id ID of the voting\n  /// @return Digest of the question and all possible answers\n  function votingDigest(uint256 _id) external view returns(bytes32) {\n    require(isValidId(_id), \"Voting does not exist.\");\n\n    return votings[_id].digest;\n  }\n\n  /// @notice Checks whether an ID is valid\n  /// @param _id ID to be checked\n  /// @return True if the ID is valid\n  function isValidId(uint256 _id) internal view returns(bool) {\n    return (_id < nextId);\n  }\n\n  /// @notice Checks whether a voting is still active (not everyone has voted and the end block is not reached yet)\n  /// @param _id Voting that should be checked\n  /// @return True if the ID is still active\n  function isActive(uint256 _id) public view returns(bool) {\n    require(isValidId(_id), \"Voting does not exist.\");\n    return !(votings[_id].totalVotes < _voterRegistry.getNumberOfVoters() || block.number >= votings[_id].end);\n  }\n\n  /// @notice Vote in a voting\n  /// @param _id Voting that should be voted on\n  /// @param _option Number of the option that should be voted for (starts at 0)\n  function vote(uint256 _id, uint8 _option) external {\n    require(isValidId(_id), \"Voting does not exist.\");\n    require(isActive(_id), \"This voting is finished\");\n    require(_option < votings[_id].votes.length, \"This option does not exist\");\n    require(!votings[_id].voters[msg.sender], \"You already voted on this issue. Votes are final\");\n    require(_voterRegistry.isRegistered(msg.sender), \"You are not registered to vote in this office\");\n\n    votings[_id].totalVotes++;\n    votings[_id].votes[_option]++;\n\n    votings[_id].voters[msg.sender] = true;\n\n    emit voteReceived(_id, msg.sender);\n  }\n\n  /// @notice Counts the number of total votes in a voting\n  /// @param _id Voting that should be looked at\n  /// @return Total number of votes\n  function totalVotes(uint256 _id) external view returns (uint256) {\n    require(isValidId(_id), \"Voting does not exist.\");\n\n    return votings[_id].totalVotes;\n  }\n\n  /// @notice Counts the number votes for each option\n  /// @param _id Voting that should be looked at\n  /// @return Array of number of votes, one number for each option\n  /// @dev Use this for information purposes only\n  function interimResults(uint256 _id) external view returns (uint256[]) {\n    require(isValidId(_id), \"Voting does not exist.\");\n\n    return votings[_id].votes;\n  }\n\n  /// @notice Counts the number votes for each option. Only works if the voting is concluded\n  /// @param _id Voting that should be looked at\n  /// @return Array of number of votes, one number for each option\n  /// @dev Use this to base further decisions or processes on\n  function finalResults(uint256 _id) external view returns (uint256[]) {\n    require(isValidId(_id), \"Voting does not exist.\");\n    require(!isActive(_id), \"This voting is still ongoing\");\n\n    return votings[_id].votes;\n  }\n}\n",
  "sourcePath": "/home/developer/Projects/voting-on-ether/contracts/VotingOffice.sol",
  "compiler": {
    "name": "solc",
    "version": "0.4.24+commit.e67f0147.Emscripten.clang"
  },
  "schemaVersion": "2.0.1",
  "updatedAt": "2018-08-20T22:51:08.430Z"
}