{
  "contractName": "VotingOffice",
  "abi": [
    {
      "constant": true,
      "inputs": [
        {
          "name": "_interfaceId",
          "type": "bytes4"
        }
      ],
      "name": "supportsInterface",
      "outputs": [
        {
          "name": "",
          "type": "bool"
        }
      ],
      "payable": false,
      "stateMutability": "view",
      "type": "function"
    },
    {
      "constant": true,
      "inputs": [
        {
          "name": "_operator",
          "type": "address"
        },
        {
          "name": "_role",
          "type": "string"
        }
      ],
      "name": "checkRole",
      "outputs": [],
      "payable": false,
      "stateMutability": "view",
      "type": "function"
    },
    {
      "constant": true,
      "inputs": [],
      "name": "ROLE_WHITELISTED",
      "outputs": [
        {
          "name": "",
          "type": "string"
        }
      ],
      "payable": false,
      "stateMutability": "view",
      "type": "function"
    },
    {
      "constant": true,
      "inputs": [],
      "name": "InterfaceId_ERC165",
      "outputs": [
        {
          "name": "",
          "type": "bytes4"
        }
      ],
      "payable": false,
      "stateMutability": "view",
      "type": "function"
    },
    {
      "constant": true,
      "inputs": [
        {
          "name": "_operator",
          "type": "address"
        },
        {
          "name": "_role",
          "type": "string"
        }
      ],
      "name": "hasRole",
      "outputs": [
        {
          "name": "",
          "type": "bool"
        }
      ],
      "payable": false,
      "stateMutability": "view",
      "type": "function"
    },
    {
      "constant": false,
      "inputs": [
        {
          "name": "_operators",
          "type": "address[]"
        }
      ],
      "name": "removeAddressesFromWhitelist",
      "outputs": [],
      "payable": false,
      "stateMutability": "nonpayable",
      "type": "function"
    },
    {
      "constant": true,
      "inputs": [],
      "name": "interfaceId_ERC165",
      "outputs": [
        {
          "name": "",
          "type": "bytes4"
        }
      ],
      "payable": false,
      "stateMutability": "view",
      "type": "function"
    },
    {
      "constant": false,
      "inputs": [
        {
          "name": "_operator",
          "type": "address"
        }
      ],
      "name": "removeAddressFromWhitelist",
      "outputs": [],
      "payable": false,
      "stateMutability": "nonpayable",
      "type": "function"
    },
    {
      "constant": false,
      "inputs": [],
      "name": "renounceOwnership",
      "outputs": [],
      "payable": false,
      "stateMutability": "nonpayable",
      "type": "function"
    },
    {
      "constant": false,
      "inputs": [
        {
          "name": "_operator",
          "type": "address"
        }
      ],
      "name": "addAddressToWhitelist",
      "outputs": [],
      "payable": false,
      "stateMutability": "nonpayable",
      "type": "function"
    },
    {
      "constant": true,
      "inputs": [],
      "name": "interfaceId_invalid",
      "outputs": [
        {
          "name": "",
          "type": "bytes4"
        }
      ],
      "payable": false,
      "stateMutability": "view",
      "type": "function"
    },
    {
      "constant": true,
      "inputs": [],
      "name": "owner",
      "outputs": [
        {
          "name": "",
          "type": "address"
        }
      ],
      "payable": false,
      "stateMutability": "view",
      "type": "function"
    },
    {
      "constant": true,
      "inputs": [
        {
          "name": "_operator",
          "type": "address"
        }
      ],
      "name": "whitelist",
      "outputs": [
        {
          "name": "",
          "type": "bool"
        }
      ],
      "payable": false,
      "stateMutability": "view",
      "type": "function"
    },
    {
      "constant": true,
      "inputs": [],
      "name": "interfaceId_VoterRegistry",
      "outputs": [
        {
          "name": "",
          "type": "bytes4"
        }
      ],
      "payable": false,
      "stateMutability": "view",
      "type": "function"
    },
    {
      "constant": false,
      "inputs": [
        {
          "name": "_operators",
          "type": "address[]"
        }
      ],
      "name": "addAddressesToWhitelist",
      "outputs": [],
      "payable": false,
      "stateMutability": "nonpayable",
      "type": "function"
    },
    {
      "constant": false,
      "inputs": [
        {
          "name": "_newOwner",
          "type": "address"
        }
      ],
      "name": "transferOwnership",
      "outputs": [],
      "payable": false,
      "stateMutability": "nonpayable",
      "type": "function"
    },
    {
      "inputs": [
        {
          "name": "__voterRegistry",
          "type": "address"
        }
      ],
      "payable": false,
      "stateMutability": "nonpayable",
      "type": "constructor"
    },
    {
      "anonymous": false,
      "inputs": [
        {
          "indexed": false,
          "name": "_votingId",
          "type": "uint256"
        }
      ],
      "name": "createdVote",
      "type": "event"
    },
    {
      "anonymous": false,
      "inputs": [
        {
          "indexed": false,
          "name": "_votingId",
          "type": "uint256"
        },
        {
          "indexed": false,
          "name": "_voter",
          "type": "address"
        }
      ],
      "name": "voteReceived",
      "type": "event"
    },
    {
      "anonymous": false,
      "inputs": [
        {
          "indexed": true,
          "name": "operator",
          "type": "address"
        },
        {
          "indexed": false,
          "name": "role",
          "type": "string"
        }
      ],
      "name": "RoleAdded",
      "type": "event"
    },
    {
      "anonymous": false,
      "inputs": [
        {
          "indexed": true,
          "name": "operator",
          "type": "address"
        },
        {
          "indexed": false,
          "name": "role",
          "type": "string"
        }
      ],
      "name": "RoleRemoved",
      "type": "event"
    },
    {
      "anonymous": false,
      "inputs": [
        {
          "indexed": true,
          "name": "previousOwner",
          "type": "address"
        }
      ],
      "name": "OwnershipRenounced",
      "type": "event"
    },
    {
      "anonymous": false,
      "inputs": [
        {
          "indexed": true,
          "name": "previousOwner",
          "type": "address"
        },
        {
          "indexed": true,
          "name": "newOwner",
          "type": "address"
        }
      ],
      "name": "OwnershipTransferred",
      "type": "event"
    },
    {
      "constant": true,
      "inputs": [],
      "name": "getVotersRegistry",
      "outputs": [
        {
          "name": "",
          "type": "address"
        }
      ],
      "payable": false,
      "stateMutability": "view",
      "type": "function"
    },
    {
      "constant": false,
      "inputs": [
        {
          "name": "_title",
          "type": "string"
        },
        {
          "name": "_options",
          "type": "uint8"
        },
        {
          "name": "_end",
          "type": "uint256"
        },
        {
          "name": "_digest",
          "type": "bytes32"
        }
      ],
      "name": "newVoting",
      "outputs": [
        {
          "name": "",
          "type": "uint256"
        }
      ],
      "payable": false,
      "stateMutability": "nonpayable",
      "type": "function"
    },
    {
      "constant": true,
      "inputs": [
        {
          "name": "_id",
          "type": "uint256"
        }
      ],
      "name": "votingTitle",
      "outputs": [
        {
          "name": "",
          "type": "string"
        }
      ],
      "payable": false,
      "stateMutability": "view",
      "type": "function"
    },
    {
      "constant": true,
      "inputs": [
        {
          "name": "_id",
          "type": "uint256"
        }
      ],
      "name": "votingEnd",
      "outputs": [
        {
          "name": "",
          "type": "uint256"
        }
      ],
      "payable": false,
      "stateMutability": "view",
      "type": "function"
    },
    {
      "constant": true,
      "inputs": [
        {
          "name": "_id",
          "type": "uint256"
        }
      ],
      "name": "votingDigest",
      "outputs": [
        {
          "name": "",
          "type": "bytes32"
        }
      ],
      "payable": false,
      "stateMutability": "view",
      "type": "function"
    },
    {
      "constant": false,
      "inputs": [
        {
          "name": "_id",
          "type": "uint256"
        },
        {
          "name": "_option",
          "type": "uint8"
        }
      ],
      "name": "vote",
      "outputs": [],
      "payable": false,
      "stateMutability": "nonpayable",
      "type": "function"
    },
    {
      "constant": true,
      "inputs": [
        {
          "name": "_id",
          "type": "uint256"
        }
      ],
      "name": "totalVotes",
      "outputs": [
        {
          "name": "",
          "type": "uint256"
        }
      ],
      "payable": false,
      "stateMutability": "view",
      "type": "function"
    },
    {
      "constant": true,
      "inputs": [
        {
          "name": "_id",
          "type": "uint256"
        }
      ],
      "name": "interimResults",
      "outputs": [
        {
          "name": "",
          "type": "uint256[]"
        }
      ],
      "payable": false,
      "stateMutability": "view",
      "type": "function"
    },
    {
      "constant": true,
      "inputs": [
        {
          "name": "_id",
          "type": "uint256"
        }
      ],
      "name": "finalResults",
      "outputs": [
        {
          "name": "",
          "type": "uint256[]"
        }
      ],
      "payable": false,
      "stateMutability": "view",
      "type": "function"
    }
  ],
  "bytecode": "0x60806040523480156200001157600080fd5b5060405160208062001d5b8339810160405251620000587f01ffc9a70000000000000000000000000000000000000000000000000000000064010000000062000433810204565b60018054600160a060020a0319908116331790915560038054600160a060020a0384811691841682179092556004805490931617808355604080517f01ffc9a70000000000000000000000000000000000000000000000000000000080825294810194909452519116916301ffc9a79160248083019260209291908290030181600087803b158015620000ea57600080fd5b505af1158015620000ff573d6000803e3d6000fd5b505050506040513d60208110156200011657600080fd5b505115156200019b57604080517f08c379a0000000000000000000000000000000000000000000000000000000008152602060048201526029602482015260008051602062001d3b83398151915260448201527f6e74204552433136350000000000000000000000000000000000000000000000606482015290519081900360840190fd5b60048054604080517f01ffc9a70000000000000000000000000000000000000000000000000000000081527fffffffff000000000000000000000000000000000000000000000000000000009381019390935251600160a060020a03909116916301ffc9a79160248083019260209291908290030181600087803b1580156200022357600080fd5b505af115801562000238573d6000803e3d6000fd5b505050506040513d60208110156200024f57600080fd5b505115620002d357604080517f08c379a0000000000000000000000000000000000000000000000000000000008152602060048201526029602482015260008051602062001d3b83398151915260448201527f6e74204552433136350000000000000000000000000000000000000000000000606482015290519081900360840190fd5b60048054604080517f01ffc9a70000000000000000000000000000000000000000000000000000000081527f312b5b94000000000000000000000000000000000000000000000000000000009381019390935251600160a060020a03909116916301ffc9a79160248083019260209291908290030181600087803b1580156200035b57600080fd5b505af115801562000370573d6000803e3d6000fd5b505050506040513d60208110156200038757600080fd5b505115156200040c57604080517f08c379a0000000000000000000000000000000000000000000000000000000008152602060048201526030602482015260008051602062001d3b83398151915260448201527f6e7420566f746572526567697374727900000000000000000000000000000000606482015290519081900360840190fd5b6001546200042c90600160a060020a0316640100000000620004a0810204565b5062000656565b7fffffffff0000000000000000000000000000000000000000000000000000000080821614156200046357600080fd5b7fffffffff00000000000000000000000000000000000000000000000000000000166000908152602081905260409020805460ff19166001179055565b600154600160a060020a03163314620004b857600080fd5b62000508816040805190810160405280600981526020017f77686974656c69737400000000000000000000000000000000000000000000008152506200050b640100000000026401000000009004565b50565b62000587826002836040518082805190602001908083835b60208310620005445780518252601f19909201916020918201910162000523565b51815160209384036101000a6000190180199092169116179052920194855250604051938490030190922092915050640100000000620006318102620015921704565b81600160a060020a03167fbfec83d64eaa953f2708271a023ab9ee82057f8f3578d548c1a4ba0b5b700489826040518080602001828103825283818151815260200191508051906020019080838360005b83811015620005f2578181015183820152602001620005d8565b50505050905090810190601f168015620006205780820380516001836020036101000a031916815260200191505b509250505060405180910390a25050565b600160a060020a0316600090815260209190915260409020805460ff19166001179055565b6116d580620006666000396000f3006080604052600436106101485763ffffffff7c010000000000000000000000000000000000000000000000000000000060003504166301ffc9a7811461014d5780630988ca8c1461018357806311387754146101ec57806318b919e91461025457806319e6e158146102de57806319fa8f5014610308578063217fe6c61461033a57806324953eaa146103a157806324f5e41014610308578063262b11cf146103f6578063286dd3f51461040e57806357c8a8ef1461042f578063715018a6146104475780637b9417c81461045c57806386ecc81b1461047d5780638a86f745146104955780638da5cb5b146104aa578063943e8216146104db578063981494eb146104f95780639b19251a1461050e5780639f8feb6c1461052f578063d920a02c1461055d578063e2ec6ec314610572578063f2fde38b146105c7578063f4a6b0c5146105e8575b600080fd5b34801561015957600080fd5b5061016f600160e060020a031960043516610600565b604080519115158252519081900360200190f35b34801561018f57600080fd5b5060408051602060046024803582810135601f81018590048502860185019096528585526101ea958335600160a060020a031695369560449491939091019190819084018382808284375094975061061f9650505050505050565b005b3480156101f857600080fd5b5061020460043561068d565b60408051602080825283518183015283519192839290830191858101910280838360005b83811015610240578181015183820152602001610228565b505050509050019250505060405180910390f35b34801561026057600080fd5b50610269610750565b6040805160208082528351818301528351919283929083019185019080838360005b838110156102a357818101518382015260200161028b565b50505050905090810190601f1680156102d05780820380516001836020036101000a031916815260200191505b509250505060405180910390f35b3480156102ea57600080fd5b506102f6600435610775565b60408051918252519081900360200190f35b34801561031457600080fd5b5061031d61078a565b60408051600160e060020a03199092168252519081900360200190f35b34801561034657600080fd5b5060408051602060046024803582810135601f810185900485028601850190965285855261016f958335600160a060020a03169536956044949193909101919081908401838280828437509497506107ae9650505050505050565b3480156103ad57600080fd5b50604080516020600480358082013583810280860185019096528085526101ea953695939460249493850192918291850190849080828437509497506108219650505050505050565b34801561040257600080fd5b50610204600435610870565b34801561041a57600080fd5b506101ea600160a060020a03600435166108d3565b34801561043b57600080fd5b506102f660043561091a565b34801561045357600080fd5b506101ea610991565b34801561046857600080fd5b506101ea600160a060020a03600435166109ff565b34801561048957600080fd5b50610269600435610a43565b3480156104a157600080fd5b5061031d610b39565b3480156104b657600080fd5b506104bf610b45565b60408051600160a060020a039092168252519081900360200190f35b3480156104e757600080fd5b506101ea60043560ff60243516610b54565b34801561050557600080fd5b506104bf610e68565b34801561051a57600080fd5b5061016f600160a060020a0360043516610e78565b34801561053b57600080fd5b506102f6602460048035828101929101359060ff903516604435606435610ead565b34801561056957600080fd5b5061031d611109565b34801561057e57600080fd5b50604080516020600480358082013583810280860185019096528085526101ea9536959394602494938501929182918501908490808284375094975061112d9650505050505050565b3480156105d357600080fd5b506101ea600160a060020a036004351661117c565b3480156105f457600080fd5b506102f660043561119c565b600160e060020a03191660009081526020819052604090205460ff1690565b610689826002836040518082805190602001908083835b602083106106555780518252601f199092019160209182019101610636565b51815160209384036101000a6000190180199092169116179052920194855250604051938490030190922092915050611213565b5050565b606061069882611228565b156106ed576040805160e560020a62461bcd02815260206004820152601c60248201527f5468697320766f74696e67206973207374696c6c206f6e676f696e6700000000604482015290519081900360640190fd5b6000828152600560209081526040918290206002018054835181840281018401909452808452909183018282801561074457602002820191906000526020600020905b815481526020019060010190808311610730575b50505050509050919050565b604080518082019091526009815260008051602061168a833981519152602082015281565b60009081526005602052604090206001015490565b7f01ffc9a70000000000000000000000000000000000000000000000000000000081565b600061081a836002846040518082805190602001908083835b602083106107e65780518252601f1990920191602091820191016107c7565b51815160209384036101000a60001901801990921691161790529201948552506040519384900301909220929150506112e9565b9392505050565b600154600090600160a060020a0316331461083b57600080fd5b5060005b815181101561068957610868828281518110151561085957fe5b906020019060200201516108d3565b60010161083f565b60008181526005602090815260409182902060020180548351818402810184019094528084526060939283018282801561074457602002820191906000526020600020908154815260200190600101908083116107305750505050509050919050565b600154600160a060020a031633146108ea57600080fd5b6109178160408051908101604052806009815260200160008051602061168a833981519152815250611308565b50565b600061092582611419565b151561097b576040805160e560020a62461bcd02815260206004820152601660248201527f566f74696e6720646f6573206e6f742065786973742e00000000000000000000604482015290519081900360640190fd5b5060009081526005602052604090206004015490565b600154600160a060020a031633146109a857600080fd5b600154604051600160a060020a03909116907ff8df31144d9c2f0f6b59d69b8b98abd5459d07f2742c4df920b25aae33c6482090600090a26001805473ffffffffffffffffffffffffffffffffffffffff19169055565b600154600160a060020a03163314610a1657600080fd5b6109178160408051908101604052806009815260200160008051602061168a833981519152815250611420565b6060610a4e82611419565b1515610aa4576040805160e560020a62461bcd02815260206004820152601660248201527f566f74696e6720646f6573206e6f742065786973742e00000000000000000000604482015290519081900360640190fd5b60008281526005602090815260409182902080548351601f6002600019610100600186161502019093169290920491820184900484028101840190945280845290918301828280156107445780601f10610b0c57610100808354040283529160200191610744565b820191906000526020600020905b815481529060010190602001808311610b1a5750939695505050505050565b600160e060020a031981565b600154600160a060020a031681565b600354604080517fc3c5a5470000000000000000000000000000000000000000000000000000000081523360048201529051600160a060020a039092169163c3c5a547916024808201926020929091908290030181600087803b158015610bba57600080fd5b505af1158015610bce573d6000803e3d6000fd5b505050506040513d6020811015610be457600080fd5b50511515610c62576040805160e560020a62461bcd02815260206004820152602d60248201527f596f7520617265206e6f74207265676973746572656420746f20766f7465206960448201527f6e2074686973206f666669636500000000000000000000000000000000000000606482015290519081900360840190fd5b6000828152600560208181526040808420338552909201905290205460ff1615610cfc576040805160e560020a62461bcd02815260206004820152603060248201527f596f7520616c726561647920766f746564206f6e20746869732069737375652e60448201527f20566f746573206172652066696e616c00000000000000000000000000000000606482015290519081900360840190fd5b60008281526005602052604090206002015460ff821610610d67576040805160e560020a62461bcd02815260206004820152601a60248201527f54686973206f7074696f6e20646f6573206e6f74206578697374000000000000604482015290519081900360640190fd5b610d7082611228565b1515610dc6576040805160e560020a62461bcd02815260206004820152601760248201527f5468697320766f74696e672069732066696e6973686564000000000000000000604482015290519081900360640190fd5b6000828152600560205260409020600180820180549091019055600201805460ff8316908110610df257fe5b600091825260208083209091018054600190810190915584835260058083526040808520338087529201845293849020805460ff191690921790915582518581529182015281517f4693464494e665299ce6fa76e6ba6a8d5b8951f9c610aac91ac363920fa9e038929181900390910190a15050565b600354600160a060020a03165b90565b6000610ea78260408051908101604052806009815260200160008051602061168a8339815191528152506107ae565b92915050565b6000606033610edf8160408051908101604052806009815260200160008051602061168a83398151915281525061061f565b600160ff871611610f60576040805160e560020a62461bcd02815260206004820152602860248201527f566f746573206e656564206174206c656173742074776f20706f737369626c6560448201527f20616e7377657273000000000000000000000000000000000000000000000000606482015290519081900360840190fd5b438511610fdd576040805160e560020a62461bcd02815260206004820152603360248201527f456e6420626c6f636b206e756d626572206973206c6f7765722064616e6e206360448201527f757272656e7420626c6f636b206e756d62657200000000000000000000000000606482015290519081900360840190fd5b8560ff1660405190808252806020026020018201604052801561100a578160200160208202803883390190505b506040805160c06020601f8c01819004028201810190925260a081018a81529294509182918b908b90819085018382808284375050509284525050600060208084018290526040808501889052606085018b90526080909401899052600654825260058152929020835180519193611087935084929101906115b7565b506020828101516001830155604083015180516110aa9260028501920190611635565b5060608201516003820155608090910151600490910155600680546001810190915560408051918252517f01276f2f434f6d1f91c3b706d53d69c31891a5f1894935cd86aa58f76c180fdd9181900360200190a1505095945050505050565b7f312b5b940000000000000000000000000000000000000000000000000000000081565b600154600090600160a060020a0316331461114757600080fd5b5060005b815181101561068957611174828281518110151561116557fe5b906020019060200201516109ff565b60010161114b565b600154600160a060020a0316331461119357600080fd5b610917816114f2565b60006111a782611419565b15156111fd576040805160e560020a62461bcd02815260206004820152601660248201527f566f74696e6720646f6573206e6f742065786973742e00000000000000000000604482015290519081900360640190fd5b5060009081526005602052604090206003015490565b61121d82826112e9565b151561068957600080fd5b600354604080517f84865b660000000000000000000000000000000000000000000000000000000081529051600092600160a060020a0316916384865b6691600480830192602092919082900301818787803b15801561128757600080fd5b505af115801561129b573d6000803e3d6000fd5b505050506040513d60208110156112b157600080fd5b505160008381526005602052604090206001015410806112e257506000828152600560205260409020600301544310155b1592915050565b600160a060020a03166000908152602091909152604090205460ff1690565b611372826002836040518082805190602001908083835b6020831061133e5780518252601f19909201916020918201910161131f565b51815160209384036101000a6000190180199092169116179052920194855250604051938490030190922092915050611570565b81600160a060020a03167fd211483f91fc6eff862467f8de606587a30c8fc9981056f051b897a418df803a826040518080602001828103825283818151815260200191508051906020019080838360005b838110156113db5781810151838201526020016113c3565b50505050905090810190601f1680156114085780820380516001836020036101000a031916815260200191505b509250505060405180910390a25050565b6006541190565b61148a826002836040518082805190602001908083835b602083106114565780518252601f199092019160209182019101611437565b51815160209384036101000a6000190180199092169116179052920194855250604051938490030190922092915050611592565b81600160a060020a03167fbfec83d64eaa953f2708271a023ab9ee82057f8f3578d548c1a4ba0b5b70048982604051808060200182810382528381815181526020019150805190602001908083836000838110156113db5781810151838201526020016113c3565b600160a060020a038116151561150757600080fd5b600154604051600160a060020a038084169216907f8be0079c531659141344cd1fd0a4f28419497f9722a3daafe3b4186f6b6457e090600090a36001805473ffffffffffffffffffffffffffffffffffffffff1916600160a060020a0392909216919091179055565b600160a060020a0316600090815260209190915260409020805460ff19169055565b600160a060020a0316600090815260209190915260409020805460ff19166001179055565b828054600181600116156101000203166002900490600052602060002090601f016020900481019282601f106115f857805160ff1916838001178555611625565b82800160010185558215611625579182015b8281111561162557825182559160200191906001019061160a565b5061163192915061166f565b5090565b828054828255906000526020600020908101928215611625579160200282018281111561162557825182559160200191906001019061160a565b610e7591905b808211156116315760008155600101611675560077686974656c6973740000000000000000000000000000000000000000000000a165627a7a72305820cbebe482e6ed36730b21edc33082c9a1f759e31dd0c7314dbe8b924862e252e0002954617267657420636f6e747261637420646f6573206e6f7420696d706c656d65",
  "source": "pragma solidity ^0.4.24;\n\nimport \"openzeppelin-solidity/contracts/introspection/SupportsInterfaceWithLookup.sol\";\nimport \"openzeppelin-solidity/contracts/access/Whitelist.sol\";\nimport \"./interfaces/VoterRegistry.sol\";\n\n/**\n * @title Voting Office\n *\n * @dev Contract to manage multiple votings belonging to one token\n */\ncontract VotingOffice is SupportsInterfaceWithLookup, Whitelist{\n  VoterRegistry internal _voterRegistry;\n  ERC165 internal _ERC165;\n\n  bytes4 public constant interfaceId_ERC165 = 0x01ffc9a7;\n  bytes4 public constant interfaceId_invalid = 0xffffffff;\n  bytes4 public constant interfaceId_VoterRegistry = 0x312b5b94;\n\n  mapping(uint256 => Voting) internal votings;\n  uint256 nextId;\n\n  struct Voting {\n    string title;\n    uint256 totalVotes;\n    uint256[] votes;\n    uint256 end;\n    // SHA256 digest of the question and all answers (comma seperated list).\n    bytes32 digest;\n    mapping(address => bool) voters;\n  }\n\n  event createdVote(\n    uint256 _votingId\n  );\n\n  event voteReceived(\n    uint256 _votingId,\n    address _voter\n  );\n\n  constructor(address __voterRegistry)\n    public\n  {\n    _voterRegistry = VoterRegistry(__voterRegistry);\n    _ERC165 = ERC165(__voterRegistry);\n\n    // Checks target contract for ERC165 interface introspection (positive and negative)\n    require(_ERC165.supportsInterface(interfaceId_ERC165), \"Target contract does not implement ERC165\");\n    require(!_ERC165.supportsInterface(interfaceId_invalid), \"Target contract does not implement ERC165\");\n\n    // Checks target contract for VoterRegistry interface\n    require(_ERC165.supportsInterface(interfaceId_VoterRegistry), \"Target contract does not implement VoterRegistry\");\n\n    addAddressToWhitelist(owner);\n  }\n\n  function getVotersRegistry() external view returns (address) {\n    return _voterRegistry;\n  }\n\n  function newVoting(\n    string _title,\n    uint8 _options,\n    uint256 _end,\n    bytes32 _digest\n  )\n    external\n    onlyIfWhitelisted(msg.sender)\n    returns (uint256)\n  {\n    require(_options > 1, \"Votes need at least two possible answers\");\n    require(_end > block.number, \"End block number is lower dann current block number\");\n\n    uint256[] memory votesArray= new uint256[](_options);\n\n    votings[nextId] = Voting(_title, 0, votesArray, _end, _digest);\n\n    emit createdVote(nextId++);\n  }\n\n  function votingTitle(uint256 _id) external view returns(string) {\n    require(isValidId(_id), \"Voting does not exist.\");\n\n    return votings[_id].title;\n  }\n\n  function votingEnd(uint256 _id) external view returns(uint256) {\n    require(isValidId(_id), \"Voting does not exist.\");\n\n    return votings[_id].end;\n  }\n\n  function votingDigest(uint256 _id) external view returns(bytes32) {\n    require(isValidId(_id), \"Voting does not exist.\");\n\n    return votings[_id].digest;\n  }\n\n  function isValidId(uint256 _id) internal view returns(bool) {\n    return (_id < nextId);\n  }\n\n  function isActive(uint256 _id) internal view returns(bool) {\n    return !(votings[_id].totalVotes < _voterRegistry.getNumberOfVoters() || block.number >= votings[_id].end);\n  }\n\n  function vote(uint256 _id, uint8 _option) external {\n    require(_voterRegistry.isRegistered(msg.sender), \"You are not registered to vote in this office\");\n    require(!votings[_id].voters[msg.sender], \"You already voted on this issue. Votes are final\");\n    require(_option < votings[_id].votes.length, \"This option does not exist\");\n    require(isActive(_id), \"This voting is finished\");\n\n    votings[_id].totalVotes++;\n    votings[_id].votes[_option]++;\n\n    votings[_id].voters[msg.sender] = true;\n\n    emit voteReceived(_id, msg.sender);\n  }\n\n  function totalVotes(uint256 _id) external view returns (uint256) {\n    return votings[_id].totalVotes;\n  }\n\n  function interimResults(uint256 _id) external view returns (uint256[]) {\n    return votings[_id].votes;\n  }\n\n  function finalResults(uint256 _id) external view returns (uint256[]) {\n    require(!isActive(_id), \"This voting is still ongoing\");\n    return votings[_id].votes;\n  }\n}\n",
  "sourcePath": "/home/developer/Projects/voting-on-ether/contracts/VotingOffice.sol",
  "compiler": {
    "name": "solc",
    "version": "0.4.24+commit.e67f0147.Emscripten.clang"
  },
  "schemaVersion": "2.0.1",
  "updatedAt": "2018-08-20T21:17:51.328Z"
}