{
  "contractName": "VotingOffice",
  "abi": [
    {
      "constant": true,
      "inputs": [
        {
          "name": "_interfaceId",
          "type": "bytes4"
        }
      ],
      "name": "supportsInterface",
      "outputs": [
        {
          "name": "",
          "type": "bool"
        }
      ],
      "payable": false,
      "stateMutability": "view",
      "type": "function"
    },
    {
      "constant": true,
      "inputs": [
        {
          "name": "_operator",
          "type": "address"
        },
        {
          "name": "_role",
          "type": "string"
        }
      ],
      "name": "checkRole",
      "outputs": [],
      "payable": false,
      "stateMutability": "view",
      "type": "function"
    },
    {
      "constant": true,
      "inputs": [],
      "name": "ROLE_WHITELISTED",
      "outputs": [
        {
          "name": "",
          "type": "string"
        }
      ],
      "payable": false,
      "stateMutability": "view",
      "type": "function"
    },
    {
      "constant": true,
      "inputs": [],
      "name": "InterfaceId_ERC165",
      "outputs": [
        {
          "name": "",
          "type": "bytes4"
        }
      ],
      "payable": false,
      "stateMutability": "view",
      "type": "function"
    },
    {
      "constant": true,
      "inputs": [
        {
          "name": "_operator",
          "type": "address"
        },
        {
          "name": "_role",
          "type": "string"
        }
      ],
      "name": "hasRole",
      "outputs": [
        {
          "name": "",
          "type": "bool"
        }
      ],
      "payable": false,
      "stateMutability": "view",
      "type": "function"
    },
    {
      "constant": false,
      "inputs": [
        {
          "name": "_operators",
          "type": "address[]"
        }
      ],
      "name": "removeAddressesFromWhitelist",
      "outputs": [],
      "payable": false,
      "stateMutability": "nonpayable",
      "type": "function"
    },
    {
      "constant": true,
      "inputs": [],
      "name": "interfaceId_ERC165",
      "outputs": [
        {
          "name": "",
          "type": "bytes4"
        }
      ],
      "payable": false,
      "stateMutability": "view",
      "type": "function"
    },
    {
      "constant": false,
      "inputs": [
        {
          "name": "_operator",
          "type": "address"
        }
      ],
      "name": "removeAddressFromWhitelist",
      "outputs": [],
      "payable": false,
      "stateMutability": "nonpayable",
      "type": "function"
    },
    {
      "constant": false,
      "inputs": [],
      "name": "renounceOwnership",
      "outputs": [],
      "payable": false,
      "stateMutability": "nonpayable",
      "type": "function"
    },
    {
      "constant": false,
      "inputs": [
        {
          "name": "_operator",
          "type": "address"
        }
      ],
      "name": "addAddressToWhitelist",
      "outputs": [],
      "payable": false,
      "stateMutability": "nonpayable",
      "type": "function"
    },
    {
      "constant": true,
      "inputs": [],
      "name": "interfaceId_invalid",
      "outputs": [
        {
          "name": "",
          "type": "bytes4"
        }
      ],
      "payable": false,
      "stateMutability": "view",
      "type": "function"
    },
    {
      "constant": true,
      "inputs": [],
      "name": "owner",
      "outputs": [
        {
          "name": "",
          "type": "address"
        }
      ],
      "payable": false,
      "stateMutability": "view",
      "type": "function"
    },
    {
      "constant": true,
      "inputs": [
        {
          "name": "_operator",
          "type": "address"
        }
      ],
      "name": "whitelist",
      "outputs": [
        {
          "name": "",
          "type": "bool"
        }
      ],
      "payable": false,
      "stateMutability": "view",
      "type": "function"
    },
    {
      "constant": true,
      "inputs": [],
      "name": "interfaceId_VoterRegistry",
      "outputs": [
        {
          "name": "",
          "type": "bytes4"
        }
      ],
      "payable": false,
      "stateMutability": "view",
      "type": "function"
    },
    {
      "constant": false,
      "inputs": [
        {
          "name": "_operators",
          "type": "address[]"
        }
      ],
      "name": "addAddressesToWhitelist",
      "outputs": [],
      "payable": false,
      "stateMutability": "nonpayable",
      "type": "function"
    },
    {
      "constant": false,
      "inputs": [
        {
          "name": "_newOwner",
          "type": "address"
        }
      ],
      "name": "transferOwnership",
      "outputs": [],
      "payable": false,
      "stateMutability": "nonpayable",
      "type": "function"
    },
    {
      "inputs": [
        {
          "name": "__voterRegistry",
          "type": "address"
        }
      ],
      "payable": false,
      "stateMutability": "nonpayable",
      "type": "constructor"
    },
    {
      "anonymous": false,
      "inputs": [
        {
          "indexed": true,
          "name": "operator",
          "type": "address"
        },
        {
          "indexed": false,
          "name": "role",
          "type": "string"
        }
      ],
      "name": "RoleAdded",
      "type": "event"
    },
    {
      "anonymous": false,
      "inputs": [
        {
          "indexed": true,
          "name": "operator",
          "type": "address"
        },
        {
          "indexed": false,
          "name": "role",
          "type": "string"
        }
      ],
      "name": "RoleRemoved",
      "type": "event"
    },
    {
      "anonymous": false,
      "inputs": [
        {
          "indexed": true,
          "name": "previousOwner",
          "type": "address"
        }
      ],
      "name": "OwnershipRenounced",
      "type": "event"
    },
    {
      "anonymous": false,
      "inputs": [
        {
          "indexed": true,
          "name": "previousOwner",
          "type": "address"
        },
        {
          "indexed": true,
          "name": "newOwner",
          "type": "address"
        }
      ],
      "name": "OwnershipTransferred",
      "type": "event"
    },
    {
      "constant": true,
      "inputs": [],
      "name": "getVotersRegistry",
      "outputs": [
        {
          "name": "",
          "type": "address"
        }
      ],
      "payable": false,
      "stateMutability": "view",
      "type": "function"
    },
    {
      "constant": false,
      "inputs": [
        {
          "name": "_title",
          "type": "string"
        },
        {
          "name": "_options",
          "type": "uint8"
        },
        {
          "name": "_end",
          "type": "uint256"
        }
      ],
      "name": "newVoting",
      "outputs": [
        {
          "name": "",
          "type": "uint256"
        }
      ],
      "payable": false,
      "stateMutability": "nonpayable",
      "type": "function"
    },
    {
      "constant": true,
      "inputs": [
        {
          "name": "_id",
          "type": "uint256"
        }
      ],
      "name": "votingTitle",
      "outputs": [
        {
          "name": "",
          "type": "string"
        }
      ],
      "payable": false,
      "stateMutability": "view",
      "type": "function"
    },
    {
      "constant": true,
      "inputs": [
        {
          "name": "_id",
          "type": "uint256"
        }
      ],
      "name": "votingEnd",
      "outputs": [
        {
          "name": "",
          "type": "uint256"
        }
      ],
      "payable": false,
      "stateMutability": "view",
      "type": "function"
    }
  ],
  "bytecode": "0x60806040523480156200001157600080fd5b50604051602080620014e68339810160405251620000587f01ffc9a70000000000000000000000000000000000000000000000000000000064010000000062000413810204565b60018054600160a060020a0319908116331790915560038054600160a060020a0384811691841682179092556004805490931617808355604080517f01ffc9a70000000000000000000000000000000000000000000000000000000080825294810194909452519116916301ffc9a79160248083019260209291908290030181600087803b158015620000ea57600080fd5b505af1158015620000ff573d6000803e3d6000fd5b505050506040513d60208110156200011657600080fd5b505115156200019b57604080517f08c379a00000000000000000000000000000000000000000000000000000000081526020600482015260296024820152600080516020620014c683398151915260448201527f6e74204552433136350000000000000000000000000000000000000000000000606482015290519081900360840190fd5b60048054604080517f01ffc9a70000000000000000000000000000000000000000000000000000000081527fffffffff000000000000000000000000000000000000000000000000000000009381019390935251600160a060020a03909116916301ffc9a79160248083019260209291908290030181600087803b1580156200022357600080fd5b505af115801562000238573d6000803e3d6000fd5b505050506040513d60208110156200024f57600080fd5b505115620002d357604080517f08c379a00000000000000000000000000000000000000000000000000000000081526020600482015260296024820152600080516020620014c683398151915260448201527f6e74204552433136350000000000000000000000000000000000000000000000606482015290519081900360840190fd5b60048054604080517f01ffc9a70000000000000000000000000000000000000000000000000000000081527feb48da06000000000000000000000000000000000000000000000000000000009381019390935251600160a060020a03909116916301ffc9a79160248083019260209291908290030181600087803b1580156200035b57600080fd5b505af115801562000370573d6000803e3d6000fd5b505050506040513d60208110156200038757600080fd5b505115156200040c57604080517f08c379a00000000000000000000000000000000000000000000000000000000081526020600482015260306024820152600080516020620014c683398151915260448201527f6e7420566f746572526567697374727900000000000000000000000000000000606482015290519081900360840190fd5b5062000480565b7fffffffff0000000000000000000000000000000000000000000000000000000080821614156200044357600080fd5b7fffffffff00000000000000000000000000000000000000000000000000000000166000908152602081905260409020805460ff19166001179055565b61103680620004906000396000f3006080604052600436106101115763ffffffff7c010000000000000000000000000000000000000000000000000000000060003504166301ffc9a781146101165780630988ca8c1461014c5780630c8189d0146101b557806318b919e9146101f257806319fa8f501461027c578063217fe6c6146102ae57806324953eaa1461031557806324f5e4101461027c578063286dd3f51461036a578063715018a61461038b5780637b9417c8146103a057806386ecc81b146103c15780638a86f745146103d95780638da5cb5b146103ee578063981494eb1461041f5780639b19251a14610434578063d920a02c14610455578063e2ec6ec31461046a578063f2fde38b146104bf578063f4a6b0c5146104e0575b600080fd5b34801561012257600080fd5b50610138600160e060020a0319600435166104f8565b604080519115158252519081900360200190f35b34801561015857600080fd5b5060408051602060046024803582810135601f81018590048502860185019096528585526101b3958335600160a060020a03169536956044949193909101919081908401838280828437509497506105179650505050505050565b005b3480156101c157600080fd5b506101e0602460048035828101929101359060ff903516604435610585565b60408051918252519081900360200190f35b3480156101fe57600080fd5b506102076107c7565b6040805160208082528351818301528351919283929083019185019080838360005b83811015610241578181015183820152602001610229565b50505050905090810190601f16801561026e5780820380516001836020036101000a031916815260200191505b509250505060405180910390f35b34801561028857600080fd5b506102916107ec565b60408051600160e060020a03199092168252519081900360200190f35b3480156102ba57600080fd5b5060408051602060046024803582810135601f8101859004850286018501909652858552610138958335600160a060020a03169536956044949193909101919081908401838280828437509497506108109650505050505050565b34801561032157600080fd5b50604080516020600480358082013583810280860185019096528085526101b3953695939460249493850192918291850190849080828437509497506108839650505050505050565b34801561037657600080fd5b506101b3600160a060020a03600435166108d2565b34801561039757600080fd5b506101b3610919565b3480156103ac57600080fd5b506101b3600160a060020a0360043516610987565b3480156103cd57600080fd5b506102076004356109cb565b3480156103e557600080fd5b50610291610acb565b3480156103fa57600080fd5b50610403610ad7565b60408051600160a060020a039092168252519081900360200190f35b34801561042b57600080fd5b50610403610ae6565b34801561044057600080fd5b50610138600160a060020a0360043516610af6565b34801561046157600080fd5b50610291610b2b565b34801561047657600080fd5b50604080516020600480358082013583810280860185019096528085526101b395369593946024949385019291829185019084908082843750949750610b4f9650505050505050565b3480156104cb57600080fd5b506101b3600160a060020a0360043516610b9e565b3480156104ec57600080fd5b506101e0600435610bbe565b600160e060020a03191660009081526020819052604090205460ff1690565b610581826002836040518082805190602001908083835b6020831061054d5780518252601f19909201916020918201910161052e565b51815160209384036101000a6000190180199092169116179052920194855250604051938490030190922092915050610c35565b5050565b60006060336105b781604080519081016040528060098152602001600080516020610feb833981519152815250610517565b600160ff861611610638576040805160e560020a62461bcd02815260206004820152602860248201527f566f746573206e656564206174206c656173742074776f20706f737369626c6560448201527f20616e7377657273000000000000000000000000000000000000000000000000606482015290519081900360840190fd5b4384116106b5576040805160e560020a62461bcd02815260206004820152603360248201527f456e6420626c6f636b206e756d626572206973206c6f7765722064616e6e206360448201527f757272656e7420626c6f636b206e756d62657200000000000000000000000000606482015290519081900360840190fd5b8460ff166040519080825280602002602001820160405280156106e2578160200160208202803883390190505b506040805160c06020601f8b01819004028201810190925260a081018981529294509182918a908a908190850183828082843750505092845250505060ff8716602080830191909152600060408084018290526060840187905260809093018890526006548152600582529190912082518051919261076692849290910190610f18565b5060208281015160018301805460ff191660ff90921691909117905560408301516002830155606083015180516107a39260038501920190610f96565b50608091909101516004909101555050600680546001810190915595945050505050565b6040805180820190915260098152600080516020610feb833981519152602082015281565b7f01ffc9a70000000000000000000000000000000000000000000000000000000081565b600061087c836002846040518082805190602001908083835b602083106108485780518252601f199092019160209182019101610829565b51815160209384036101000a6000190180199092169116179052920194855250604051938490030190922092915050610c4a565b9392505050565b600154600090600160a060020a0316331461089d57600080fd5b5060005b8151811015610581576108ca82828151811015156108bb57fe5b906020019060200201516108d2565b6001016108a1565b600154600160a060020a031633146108e957600080fd5b61091681604080519081016040528060098152602001600080516020610feb833981519152815250610c69565b50565b600154600160a060020a0316331461093057600080fd5b600154604051600160a060020a03909116907ff8df31144d9c2f0f6b59d69b8b98abd5459d07f2742c4df920b25aae33c6482090600090a26001805473ffffffffffffffffffffffffffffffffffffffff19169055565b600154600160a060020a0316331461099e57600080fd5b61091681604080519081016040528060098152602001600080516020610feb833981519152815250610d7a565b60606109d682610e4c565b1515610a2c576040805160e560020a62461bcd02815260206004820152601660248201527f566f74696e6720646f6573206e6f742065786973742e00000000000000000000604482015290519081900360640190fd5b60008281526005602090815260409182902080548351601f600260001961010060018616150201909316929092049182018490048402810184019094528084529091830182828015610abf5780601f10610a9457610100808354040283529160200191610abf565b820191906000526020600020905b815481529060010190602001808311610aa257829003601f168201915b50505050509050919050565b600160e060020a031981565b600154600160a060020a031681565b600354600160a060020a03165b90565b6000610b2582604080519081016040528060098152602001600080516020610feb833981519152815250610810565b92915050565b7feb48da060000000000000000000000000000000000000000000000000000000081565b600154600090600160a060020a03163314610b6957600080fd5b5060005b815181101561058157610b968282815181101515610b8757fe5b90602001906020020151610987565b600101610b6d565b600154600160a060020a03163314610bb557600080fd5b61091681610e53565b6000610bc982610e4c565b1515610c1f576040805160e560020a62461bcd02815260206004820152601660248201527f566f74696e6720646f6573206e6f742065786973742e00000000000000000000604482015290519081900360640190fd5b5060009081526005602052604090206004015490565b610c3f8282610c4a565b151561058157600080fd5b600160a060020a03166000908152602091909152604090205460ff1690565b610cd3826002836040518082805190602001908083835b60208310610c9f5780518252601f199092019160209182019101610c80565b51815160209384036101000a6000190180199092169116179052920194855250604051938490030190922092915050610ed1565b81600160a060020a03167fd211483f91fc6eff862467f8de606587a30c8fc9981056f051b897a418df803a826040518080602001828103825283818151815260200191508051906020019080838360005b83811015610d3c578181015183820152602001610d24565b50505050905090810190601f168015610d695780820380516001836020036101000a031916815260200191505b509250505060405180910390a25050565b610de4826002836040518082805190602001908083835b60208310610db05780518252601f199092019160209182019101610d91565b51815160209384036101000a6000190180199092169116179052920194855250604051938490030190922092915050610ef3565b81600160a060020a03167fbfec83d64eaa953f2708271a023ab9ee82057f8f3578d548c1a4ba0b5b7004898260405180806020018281038252838181518152602001915080519060200190808383600083811015610d3c578181015183820152602001610d24565b6006541190565b600160a060020a0381161515610e6857600080fd5b600154604051600160a060020a038084169216907f8be0079c531659141344cd1fd0a4f28419497f9722a3daafe3b4186f6b6457e090600090a36001805473ffffffffffffffffffffffffffffffffffffffff1916600160a060020a0392909216919091179055565b600160a060020a0316600090815260209190915260409020805460ff19169055565b600160a060020a0316600090815260209190915260409020805460ff19166001179055565b828054600181600116156101000203166002900490600052602060002090601f016020900481019282601f10610f5957805160ff1916838001178555610f86565b82800160010185558215610f86579182015b82811115610f86578251825591602001919060010190610f6b565b50610f92929150610fd0565b5090565b828054828255906000526020600020908101928215610f865791602002820182811115610f86578251825591602001919060010190610f6b565b610af391905b80821115610f925760008155600101610fd6560077686974656c6973740000000000000000000000000000000000000000000000a165627a7a72305820d3b2e5b5c847d153b2802977ccb5f9bec67ef8dd7322d1fe9ea1333b012773e0002954617267657420636f6e747261637420646f6573206e6f7420696d706c656d65",
  "source": "pragma solidity ^0.4.24;\n\nimport \"openzeppelin-solidity/contracts/introspection/SupportsInterfaceWithLookup.sol\";\nimport \"openzeppelin-solidity/contracts/access/Whitelist.sol\";\nimport \"./interfaces/VoterRegistry.sol\";\n\n/**\n * @title Voting Office\n *\n * @dev Contract to manage multiple votings belonging to one token\n */\ncontract VotingOffice is SupportsInterfaceWithLookup, Whitelist{\n  VoterRegistry internal _voterRegistry;\n  ERC165 internal _ERC165;\n\n  bytes4 public constant interfaceId_ERC165 = 0x01ffc9a7;\n  bytes4 public constant interfaceId_invalid = 0xffffffff;\n  bytes4 public constant interfaceId_VoterRegistry = 0xeb48da06;\n\n  mapping(uint256 => Voting) internal votings;\n  uint256 nextId;\n\n  struct Voting {\n    string title;\n    uint8 options;\n    uint256 totalVotes;\n    uint256[] votes;\n    uint256 end;\n    mapping(address => bool) voters;\n  }\n\n\n  constructor(address __voterRegistry)\n    public\n  {\n    _voterRegistry = VoterRegistry(__voterRegistry);\n    _ERC165 = ERC165(__voterRegistry);\n\n    // Checks target contract for ERC165 interface introspection (positive and negative)\n    require(_ERC165.supportsInterface(interfaceId_ERC165), \"Target contract does not implement ERC165\");\n    require(!_ERC165.supportsInterface(interfaceId_invalid), \"Target contract does not implement ERC165\");\n\n    // Checks target contract fro VoterRegistry interfaece\n    require(_ERC165.supportsInterface(interfaceId_VoterRegistry), \"Target contract does not implement VoterRegistry\");\n  }\n\n  function getVotersRegistry() external view returns (address) {\n    return _voterRegistry;\n  }\n\n  function newVoting(\n    string _title,\n    uint8 _options,\n    uint256 _end\n  )\n    external\n    onlyIfWhitelisted(msg.sender)\n    returns (uint256)\n  {\n    require(_options > 1, \"Votes need at least two possible answers\");\n    require(_end > block.number, \"End block number is lower dann current block number\");\n\n    uint256[] memory votesArray= new uint256[](_options);\n\n    votings[nextId] = Voting(_title, _options, 0, votesArray, _end);\n\n    return nextId++;\n  }\n\n  function votingTitle(uint256 _id) external view returns(string) {\n    require(isValidId(_id), \"Voting does not exist.\");\n\n    return votings[_id].title;\n  }\n\n  function votingEnd(uint256 _id) external view returns(uint256) {\n    require(isValidId(_id), \"Voting does not exist.\");\n\n    return votings[_id].end;\n  }\n\n  function isValidId(uint256 _id) internal view returns(bool) {\n    return (_id < nextId);\n  }\n}\n",
  "sourcePath": "/home/developer/Projects/voting-on-ether/contracts/VotingOffice.sol",
  "compiler": {
    "name": "solc",
    "version": "0.4.24+commit.e67f0147.Emscripten.clang"
  },
  "schemaVersion": "2.0.1",
  "updatedAt": "2018-08-19T16:45:54.788Z"
}