{
  "contractName": "VotingOffice",
  "abi": [
    {
      "constant": true,
      "inputs": [
        {
          "name": "_interfaceId",
          "type": "bytes4"
        }
      ],
      "name": "supportsInterface",
      "outputs": [
        {
          "name": "",
          "type": "bool"
        }
      ],
      "payable": false,
      "stateMutability": "view",
      "type": "function"
    },
    {
      "constant": true,
      "inputs": [
        {
          "name": "_operator",
          "type": "address"
        },
        {
          "name": "_role",
          "type": "string"
        }
      ],
      "name": "checkRole",
      "outputs": [],
      "payable": false,
      "stateMutability": "view",
      "type": "function"
    },
    {
      "constant": true,
      "inputs": [],
      "name": "ROLE_WHITELISTED",
      "outputs": [
        {
          "name": "",
          "type": "string"
        }
      ],
      "payable": false,
      "stateMutability": "view",
      "type": "function"
    },
    {
      "constant": true,
      "inputs": [],
      "name": "InterfaceId_ERC165",
      "outputs": [
        {
          "name": "",
          "type": "bytes4"
        }
      ],
      "payable": false,
      "stateMutability": "view",
      "type": "function"
    },
    {
      "constant": true,
      "inputs": [
        {
          "name": "_operator",
          "type": "address"
        },
        {
          "name": "_role",
          "type": "string"
        }
      ],
      "name": "hasRole",
      "outputs": [
        {
          "name": "",
          "type": "bool"
        }
      ],
      "payable": false,
      "stateMutability": "view",
      "type": "function"
    },
    {
      "constant": false,
      "inputs": [
        {
          "name": "_operators",
          "type": "address[]"
        }
      ],
      "name": "removeAddressesFromWhitelist",
      "outputs": [],
      "payable": false,
      "stateMutability": "nonpayable",
      "type": "function"
    },
    {
      "constant": true,
      "inputs": [],
      "name": "interfaceId_ERC165",
      "outputs": [
        {
          "name": "",
          "type": "bytes4"
        }
      ],
      "payable": false,
      "stateMutability": "view",
      "type": "function"
    },
    {
      "constant": false,
      "inputs": [
        {
          "name": "_operator",
          "type": "address"
        }
      ],
      "name": "removeAddressFromWhitelist",
      "outputs": [],
      "payable": false,
      "stateMutability": "nonpayable",
      "type": "function"
    },
    {
      "constant": false,
      "inputs": [],
      "name": "renounceOwnership",
      "outputs": [],
      "payable": false,
      "stateMutability": "nonpayable",
      "type": "function"
    },
    {
      "constant": false,
      "inputs": [
        {
          "name": "_operator",
          "type": "address"
        }
      ],
      "name": "addAddressToWhitelist",
      "outputs": [],
      "payable": false,
      "stateMutability": "nonpayable",
      "type": "function"
    },
    {
      "constant": true,
      "inputs": [],
      "name": "interfaceId_ERC20",
      "outputs": [
        {
          "name": "",
          "type": "bytes4"
        }
      ],
      "payable": false,
      "stateMutability": "view",
      "type": "function"
    },
    {
      "constant": true,
      "inputs": [],
      "name": "interfaceId_invalid",
      "outputs": [
        {
          "name": "",
          "type": "bytes4"
        }
      ],
      "payable": false,
      "stateMutability": "view",
      "type": "function"
    },
    {
      "constant": true,
      "inputs": [],
      "name": "owner",
      "outputs": [
        {
          "name": "",
          "type": "address"
        }
      ],
      "payable": false,
      "stateMutability": "view",
      "type": "function"
    },
    {
      "constant": true,
      "inputs": [
        {
          "name": "_operator",
          "type": "address"
        }
      ],
      "name": "whitelist",
      "outputs": [
        {
          "name": "",
          "type": "bool"
        }
      ],
      "payable": false,
      "stateMutability": "view",
      "type": "function"
    },
    {
      "constant": false,
      "inputs": [
        {
          "name": "_operators",
          "type": "address[]"
        }
      ],
      "name": "addAddressesToWhitelist",
      "outputs": [],
      "payable": false,
      "stateMutability": "nonpayable",
      "type": "function"
    },
    {
      "constant": false,
      "inputs": [
        {
          "name": "_newOwner",
          "type": "address"
        }
      ],
      "name": "transferOwnership",
      "outputs": [],
      "payable": false,
      "stateMutability": "nonpayable",
      "type": "function"
    },
    {
      "inputs": [
        {
          "name": "__votingRights",
          "type": "address"
        }
      ],
      "payable": false,
      "stateMutability": "nonpayable",
      "type": "constructor"
    },
    {
      "anonymous": false,
      "inputs": [
        {
          "indexed": true,
          "name": "operator",
          "type": "address"
        },
        {
          "indexed": false,
          "name": "role",
          "type": "string"
        }
      ],
      "name": "RoleAdded",
      "type": "event"
    },
    {
      "anonymous": false,
      "inputs": [
        {
          "indexed": true,
          "name": "operator",
          "type": "address"
        },
        {
          "indexed": false,
          "name": "role",
          "type": "string"
        }
      ],
      "name": "RoleRemoved",
      "type": "event"
    },
    {
      "anonymous": false,
      "inputs": [
        {
          "indexed": true,
          "name": "previousOwner",
          "type": "address"
        }
      ],
      "name": "OwnershipRenounced",
      "type": "event"
    },
    {
      "anonymous": false,
      "inputs": [
        {
          "indexed": true,
          "name": "previousOwner",
          "type": "address"
        },
        {
          "indexed": true,
          "name": "newOwner",
          "type": "address"
        }
      ],
      "name": "OwnershipTransferred",
      "type": "event"
    },
    {
      "constant": false,
      "inputs": [],
      "name": "getVotersRegistry",
      "outputs": [
        {
          "name": "",
          "type": "address"
        }
      ],
      "payable": false,
      "stateMutability": "nonpayable",
      "type": "function"
    },
    {
      "constant": false,
      "inputs": [
        {
          "name": "_title",
          "type": "string"
        },
        {
          "name": "_options",
          "type": "uint8"
        },
        {
          "name": "_end",
          "type": "uint256"
        }
      ],
      "name": "newDemocraticVoting",
      "outputs": [
        {
          "name": "",
          "type": "uint256"
        }
      ],
      "payable": false,
      "stateMutability": "nonpayable",
      "type": "function"
    },
    {
      "constant": true,
      "inputs": [
        {
          "name": "_id",
          "type": "uint256"
        }
      ],
      "name": "votingTitle",
      "outputs": [
        {
          "name": "",
          "type": "string"
        }
      ],
      "payable": false,
      "stateMutability": "view",
      "type": "function"
    },
    {
      "constant": true,
      "inputs": [
        {
          "name": "_id",
          "type": "uint256"
        }
      ],
      "name": "votingEnd",
      "outputs": [
        {
          "name": "",
          "type": "uint256"
        }
      ],
      "payable": false,
      "stateMutability": "view",
      "type": "function"
    }
  ],
  "bytecode": "0x60806040523480156200001157600080fd5b506040516020806200210a83398101806040528101908080519060200190929190505050620000726301ffc9a77c01000000000000000000000000000000000000000000000000000000000262000659640100000000026401000000009004565b33600160006101000a81548173ffffffffffffffffffffffffffffffffffffffff021916908373ffffffffffffffffffffffffffffffffffffffff16021790555080600360006101000a81548173ffffffffffffffffffffffffffffffffffffffff021916908373ffffffffffffffffffffffffffffffffffffffff160217905550600360009054906101000a900473ffffffffffffffffffffffffffffffffffffffff1673ffffffffffffffffffffffffffffffffffffffff166301ffc9a7807c0100000000000000000000000000000000000000000000000000000000026040518263ffffffff167c010000000000000000000000000000000000000000000000000000000002815260040180827bffffffffffffffffffffffffffffffffffffffffffffffffffffffff19167bffffffffffffffffffffffffffffffffffffffffffffffffffffffff19168152602001915050602060405180830381600087803b158015620001e357600080fd5b505af1158015620001f8573d6000803e3d6000fd5b505050506040513d60208110156200020f57600080fd5b81019080805190602001909291905050501515620002bb576040517f08c379a00000000000000000000000000000000000000000000000000000000081526004018080602001828103825260298152602001807f54617267657420636f6e747261637420646f6573206e6f7420696d706c656d6581526020017f6e7420455243313635000000000000000000000000000000000000000000000081525060400191505060405180910390fd5b600360009054906101000a900473ffffffffffffffffffffffffffffffffffffffff1673ffffffffffffffffffffffffffffffffffffffff166301ffc9a763ffffffff7c0100000000000000000000000000000000000000000000000000000000026040518263ffffffff167c010000000000000000000000000000000000000000000000000000000002815260040180827bffffffffffffffffffffffffffffffffffffffffffffffffffffffff19167bffffffffffffffffffffffffffffffffffffffffffffffffffffffff19168152602001915050602060405180830381600087803b158015620003ae57600080fd5b505af1158015620003c3573d6000803e3d6000fd5b505050506040513d6020811015620003da57600080fd5b810190808051906020019092919050505015151562000487576040517f08c379a00000000000000000000000000000000000000000000000000000000081526004018080602001828103825260298152602001807f54617267657420636f6e747261637420646f6573206e6f7420696d706c656d6581526020017f6e7420455243313635000000000000000000000000000000000000000000000081525060400191505060405180910390fd5b600360009054906101000a900473ffffffffffffffffffffffffffffffffffffffff1673ffffffffffffffffffffffffffffffffffffffff166301ffc9a76336372b077c0100000000000000000000000000000000000000000000000000000000026040518263ffffffff167c010000000000000000000000000000000000000000000000000000000002815260040180827bffffffffffffffffffffffffffffffffffffffffffffffffffffffff19167bffffffffffffffffffffffffffffffffffffffffffffffffffffffff19168152602001915050602060405180830381600087803b1580156200057a57600080fd5b505af11580156200058f573d6000803e3d6000fd5b505050506040513d6020811015620005a657600080fd5b8101908080519060200190929190505050151562000652576040517f08c379a00000000000000000000000000000000000000000000000000000000081526004018080602001828103825260288152602001807f54617267657420636f6e747261637420646f6573206e6f7420696d706c656d6581526020017f6e7420455243323000000000000000000000000000000000000000000000000081525060400191505060405180910390fd5b5062000717565b63ffffffff7c010000000000000000000000000000000000000000000000000000000002817bffffffffffffffffffffffffffffffffffffffffffffffffffffffff191614151515620006ab57600080fd5b6001600080837bffffffffffffffffffffffffffffffffffffffffffffffffffffffff19167bffffffffffffffffffffffffffffffffffffffffffffffffffffffff1916815260200190815260200160002060006101000a81548160ff02191690831515021790555050565b6119e380620007276000396000f300608060405260043610610112576000357c0100000000000000000000000000000000000000000000000000000000900463ffffffff16806301ffc9a7146101175780630988ca8c1461017b57806318b919e91461020457806319fa8f5014610294578063217fe6c6146102fd57806324953eaa1461039e57806324f5e41014610404578063286dd3f51461046d57806341ea2765146104b0578063715018a6146105165780637b9417c81461052d5780637ee644fa1461057057806386ecc81b146105d95780638a86f7451461067f5780638da5cb5b146106e8578063981494eb1461073f5780639b19251a14610796578063e2ec6ec3146107f1578063f2fde38b14610857578063f4a6b0c51461089a575b600080fd5b34801561012357600080fd5b5061016160048036038101908080357bffffffffffffffffffffffffffffffffffffffffffffffffffffffff191690602001909291905050506108db565b604051808215151515815260200191505060405180910390f35b34801561018757600080fd5b50610202600480360381019080803573ffffffffffffffffffffffffffffffffffffffff169060200190929190803590602001908201803590602001908080601f0160208091040260200160405190810160405280939291908181526020018383808284378201915050505050509192919290505050610942565b005b34801561021057600080fd5b506102196109c3565b6040518080602001828103825283818151815260200191508051906020019080838360005b8381101561025957808201518184015260208101905061023e565b50505050905090810190601f1680156102865780820380516001836020036101000a031916815260200191505b509250505060405180910390f35b3480156102a057600080fd5b506102a96109fc565b60405180827bffffffffffffffffffffffffffffffffffffffffffffffffffffffff19167bffffffffffffffffffffffffffffffffffffffffffffffffffffffff1916815260200191505060405180910390f35b34801561030957600080fd5b50610384600480360381019080803573ffffffffffffffffffffffffffffffffffffffff169060200190929190803590602001908201803590602001908080601f0160208091040260200160405190810160405280939291908181526020018383808284378201915050505050509192919290505050610a23565b604051808215151515815260200191505060405180910390f35b3480156103aa57600080fd5b5061040260048036038101908080359060200190820180359060200190808060200260200160405190810160405280939291908181526020018383602002808284378201915050505050509192919290505050610aaa565b005b34801561041057600080fd5b50610419610b47565b60405180827bffffffffffffffffffffffffffffffffffffffffffffffffffffffff19167bffffffffffffffffffffffffffffffffffffffffffffffffffffffff1916815260200191505060405180910390f35b34801561047957600080fd5b506104ae600480360381019080803573ffffffffffffffffffffffffffffffffffffffff169060200190929190505050610b6e565b005b3480156104bc57600080fd5b50610500600480360381019080803590602001908201803590602001919091929391929390803560ff16906020019092919080359060200190929190505050610c0c565b6040518082815260200191505060405180910390f35b34801561052257600080fd5b5061052b610ec5565b005b34801561053957600080fd5b5061056e600480360381019080803573ffffffffffffffffffffffffffffffffffffffff169060200190929190505050610fca565b005b34801561057c57600080fd5b50610585611068565b60405180827bffffffffffffffffffffffffffffffffffffffffffffffffffffffff19167bffffffffffffffffffffffffffffffffffffffffffffffffffffffff1916815260200191505060405180910390f35b3480156105e557600080fd5b506106046004803603810190808035906020019092919050505061108f565b6040518080602001828103825283818151815260200191508051906020019080838360005b83811015610644578082015181840152602081019050610629565b50505050905090810190601f1680156106715780820380516001836020036101000a031916815260200191505b509250505060405180910390f35b34801561068b57600080fd5b506106946111c4565b60405180827bffffffffffffffffffffffffffffffffffffffffffffffffffffffff19167bffffffffffffffffffffffffffffffffffffffffffffffffffffffff1916815260200191505060405180910390f35b3480156106f457600080fd5b506106fd6111eb565b604051808273ffffffffffffffffffffffffffffffffffffffff1673ffffffffffffffffffffffffffffffffffffffff16815260200191505060405180910390f35b34801561074b57600080fd5b50610754611211565b604051808273ffffffffffffffffffffffffffffffffffffffff1673ffffffffffffffffffffffffffffffffffffffff16815260200191505060405180910390f35b3480156107a257600080fd5b506107d7600480360381019080803573ffffffffffffffffffffffffffffffffffffffff16906020019092919050505061123b565b604051808215151515815260200191505060405180910390f35b3480156107fd57600080fd5b5061085560048036038101908080359060200190820180359060200190808060200260200160405190810160405280939291908181526020018383602002808284378201915050505050509192919290505050611283565b005b34801561086357600080fd5b50610898600480360381019080803573ffffffffffffffffffffffffffffffffffffffff169060200190929190505050611320565b005b3480156108a657600080fd5b506108c560048036038101908080359060200190929190505050611388565b6040518082815260200191505060405180910390f35b6000806000837bffffffffffffffffffffffffffffffffffffffffffffffffffffffff19167bffffffffffffffffffffffffffffffffffffffffffffffffffffffff1916815260200190815260200160002060009054906101000a900460ff169050919050565b6109bf826002836040518082805190602001908083835b60208310151561097e5780518252602082019150602081019050602083039250610959565b6001836020036101000a038019825116818451168082178552505050505050905001915050908152602001604051809103902061142590919063ffffffff16565b5050565b6040805190810160405280600981526020017f77686974656c697374000000000000000000000000000000000000000000000081525081565b6301ffc9a77c01000000000000000000000000000000000000000000000000000000000281565b6000610aa2836002846040518082805190602001908083835b602083101515610a615780518252602082019150602081019050602083039250610a3c565b6001836020036101000a038019825116818451168082178552505050505050905001915050908152602001604051809103902061143e90919063ffffffff16565b905092915050565b6000600160009054906101000a900473ffffffffffffffffffffffffffffffffffffffff1673ffffffffffffffffffffffffffffffffffffffff163373ffffffffffffffffffffffffffffffffffffffff16141515610b0857600080fd5b600090505b8151811015610b4357610b368282815181101515610b2757fe5b90602001906020020151610b6e565b8080600101915050610b0d565b5050565b6301ffc9a77c01000000000000000000000000000000000000000000000000000000000281565b600160009054906101000a900473ffffffffffffffffffffffffffffffffffffffff1673ffffffffffffffffffffffffffffffffffffffff163373ffffffffffffffffffffffffffffffffffffffff16141515610bca57600080fd5b610c09816040805190810160405280600981526020017f77686974656c6973740000000000000000000000000000000000000000000000815250611497565b50565b6000606033610c50816040805190810160405280600981526020017f77686974656c6973740000000000000000000000000000000000000000000000815250610942565b60018560ff16111515610cf1576040517f08c379a00000000000000000000000000000000000000000000000000000000081526004018080602001828103825260288152602001807f566f746573206e656564206174206c656173742074776f20706f737369626c6581526020017f20616e737765727300000000000000000000000000000000000000000000000081525060400191505060405180910390fd5b4384111515610d8e576040517f08c379a00000000000000000000000000000000000000000000000000000000081526004018080602001828103825260338152602001807f456e6420626c6f636b206e756d626572206973206c6f7765722064616e6e206381526020017f757272656e7420626c6f636b206e756d6265720000000000000000000000000081525060400191505060405180910390fd5b8460ff16604051908082528060200260200182016040528015610dc05781602001602082028038833980820191505090505b50915060a06040519081016040528088888080601f01602080910402602001604051908101604052809392919081815260200183838082843782019150505050505081526020018660ff16815260200160008152602001838152602001858152506004600060055481526020019081526020016000206000820151816000019080519060200190610e529291906118c5565b5060208201518160010160006101000a81548160ff021916908360ff160217905550604082015181600201556060820151816003019080519060200190610e9a929190611945565b5060808201518160040155905050600560008154809291906001019190505592505050949350505050565b600160009054906101000a900473ffffffffffffffffffffffffffffffffffffffff1673ffffffffffffffffffffffffffffffffffffffff163373ffffffffffffffffffffffffffffffffffffffff16141515610f2157600080fd5b600160009054906101000a900473ffffffffffffffffffffffffffffffffffffffff1673ffffffffffffffffffffffffffffffffffffffff167ff8df31144d9c2f0f6b59d69b8b98abd5459d07f2742c4df920b25aae33c6482060405160405180910390a26000600160006101000a81548173ffffffffffffffffffffffffffffffffffffffff021916908373ffffffffffffffffffffffffffffffffffffffff160217905550565b600160009054906101000a900473ffffffffffffffffffffffffffffffffffffffff1673ffffffffffffffffffffffffffffffffffffffff163373ffffffffffffffffffffffffffffffffffffffff1614151561102657600080fd5b611065816040805190810160405280600981526020017f77686974656c69737400000000000000000000000000000000000000000000008152506115cb565b50565b6336372b077c01000000000000000000000000000000000000000000000000000000000281565b606061109a826116ff565b151561110e576040517f08c379a00000000000000000000000000000000000000000000000000000000081526004018080602001828103825260168152602001807f566f74696e6720646f6573206e6f742065786973742e0000000000000000000081525060200191505060405180910390fd5b600460008381526020019081526020016000206000018054600181600116156101000203166002900480601f0160208091040260200160405190810160405280929190818152602001828054600181600116156101000203166002900480156111b85780601f1061118d576101008083540402835291602001916111b8565b820191906000526020600020905b81548152906001019060200180831161119b57829003601f168201915b50505050509050919050565b63ffffffff7c01000000000000000000000000000000000000000000000000000000000281565b600160009054906101000a900473ffffffffffffffffffffffffffffffffffffffff1681565b6000600360009054906101000a900473ffffffffffffffffffffffffffffffffffffffff16905090565b600061127c826040805190810160405280600981526020017f77686974656c6973740000000000000000000000000000000000000000000000815250610a23565b9050919050565b6000600160009054906101000a900473ffffffffffffffffffffffffffffffffffffffff1673ffffffffffffffffffffffffffffffffffffffff163373ffffffffffffffffffffffffffffffffffffffff161415156112e157600080fd5b600090505b815181101561131c5761130f828281518110151561130057fe5b90602001906020020151610fca565b80806001019150506112e6565b5050565b600160009054906101000a900473ffffffffffffffffffffffffffffffffffffffff1673ffffffffffffffffffffffffffffffffffffffff163373ffffffffffffffffffffffffffffffffffffffff1614151561137c57600080fd5b6113858161170d565b50565b6000611393826116ff565b1515611407576040517f08c379a00000000000000000000000000000000000000000000000000000000081526004018080602001828103825260168152602001807f566f74696e6720646f6573206e6f742065786973742e0000000000000000000081525060200191505060405180910390fd5b60046000838152602001908152602001600020600401549050919050565b61142f828261143e565b151561143a57600080fd5b5050565b60008260000160008373ffffffffffffffffffffffffffffffffffffffff1673ffffffffffffffffffffffffffffffffffffffff16815260200190815260200160002060009054906101000a900460ff16905092915050565b611514826002836040518082805190602001908083835b6020831015156114d357805182526020820191506020810190506020830392506114ae565b6001836020036101000a038019825116818451168082178552505050505050905001915050908152602001604051809103902061180990919063ffffffff16565b8173ffffffffffffffffffffffffffffffffffffffff167fd211483f91fc6eff862467f8de606587a30c8fc9981056f051b897a418df803a826040518080602001828103825283818151815260200191508051906020019080838360005b8381101561158d578082015181840152602081019050611572565b50505050905090810190601f1680156115ba5780820380516001836020036101000a031916815260200191505b509250505060405180910390a25050565b611648826002836040518082805190602001908083835b60208310151561160757805182526020820191506020810190506020830392506115e2565b6001836020036101000a038019825116818451168082178552505050505050905001915050908152602001604051809103902061186790919063ffffffff16565b8173ffffffffffffffffffffffffffffffffffffffff167fbfec83d64eaa953f2708271a023ab9ee82057f8f3578d548c1a4ba0b5b700489826040518080602001828103825283818151815260200191508051906020019080838360005b838110156116c15780820151818401526020810190506116a6565b50505050905090810190601f1680156116ee5780820380516001836020036101000a031916815260200191505b509250505060405180910390a25050565b600060055482109050919050565b600073ffffffffffffffffffffffffffffffffffffffff168173ffffffffffffffffffffffffffffffffffffffff161415151561174957600080fd5b8073ffffffffffffffffffffffffffffffffffffffff16600160009054906101000a900473ffffffffffffffffffffffffffffffffffffffff1673ffffffffffffffffffffffffffffffffffffffff167f8be0079c531659141344cd1fd0a4f28419497f9722a3daafe3b4186f6b6457e060405160405180910390a380600160006101000a81548173ffffffffffffffffffffffffffffffffffffffff021916908373ffffffffffffffffffffffffffffffffffffffff16021790555050565b60008260000160008373ffffffffffffffffffffffffffffffffffffffff1673ffffffffffffffffffffffffffffffffffffffff16815260200190815260200160002060006101000a81548160ff0219169083151502179055505050565b60018260000160008373ffffffffffffffffffffffffffffffffffffffff1673ffffffffffffffffffffffffffffffffffffffff16815260200190815260200160002060006101000a81548160ff0219169083151502179055505050565b828054600181600116156101000203166002900490600052602060002090601f016020900481019282601f1061190657805160ff1916838001178555611934565b82800160010185558215611934579182015b82811115611933578251825591602001919060010190611918565b5b5090506119419190611992565b5090565b828054828255906000526020600020908101928215611981579160200282015b82811115611980578251825591602001919060010190611965565b5b50905061198e9190611992565b5090565b6119b491905b808211156119b0576000816000905550600101611998565b5090565b905600a165627a7a7230582051e7bed52d36add71c884a39ba33af42f2a4afd01e59102ea9a859b374fa78cb0029",
  "source": "pragma solidity ^0.4.24;\n\nimport \"openzeppelin-solidity/contracts/token/ERC20/ERC20.sol\";\nimport \"openzeppelin-solidity/contracts/introspection/SupportsInterfaceWithLookup.sol\";\nimport \"openzeppelin-solidity/contracts/access/Whitelist.sol\";\n\n/**\n * @title ERC165-compatible ERC20 token contract\n *\n * @dev Used as interface by VotingOffice\n */\ncontract VotingRights is ERC165, ERC20{\n\n}\n\n/**\n * @title Voting Office\n *\n * @dev Contract to manage multiple votings belonging to one token\n */\ncontract VotingOffice is SupportsInterfaceWithLookup, Whitelist{\n  VotingRights internal _votingRights;\n\n  bytes4 public constant interfaceId_ERC20 = 0x36372b07;\n  bytes4 public constant interfaceId_ERC165 = 0x01ffc9a7;\n  bytes4 public constant interfaceId_invalid = 0xffffffff;\n\n  mapping(uint256 => Voting) internal votings;\n  uint256 nextId;\n\n  struct Voting {\n    string title;\n    uint8 options;\n    uint256 totalVotes;\n    uint256[] votes;\n    uint256 end;\n    mapping(address => bool) voters;\n  }\n\n\n  constructor(address __votingRights)\n    public\n  {\n    _votingRights = VotingRights(__votingRights);\n\n    // Checks target contract for ERC165 interface introspection (positive and negative)\n    require(_votingRights.supportsInterface(interfaceId_ERC165), \"Target contract does not implement ERC165\");\n    require(!_votingRights.supportsInterface(interfaceId_invalid), \"Target contract does not implement ERC165\");\n\n    // Checks target contract for ERC20 compatibility\n    require(_votingRights.supportsInterface(interfaceId_ERC20), \"Target contract does not implement ERC20\");\n  }\n\n  function getVotersRegistry() external returns (address) {\n    return _votingRights;\n  }\n\n  function newDemocraticVoting(\n    string _title,\n    uint8 _options,\n    uint256 _end\n  )\n    external\n    onlyIfWhitelisted(msg.sender)\n    returns (uint256)\n  {\n    require(_options > 1, \"Votes need at least two possible answers\");\n    require(_end > block.number, \"End block number is lower dann current block number\");\n\n    uint256[] memory votesArray= new uint256[](_options);\n\n    votings[nextId] = Voting(_title, _options, 0, votesArray, _end);\n\n    return nextId++;\n  }\n\n  function votingTitle(uint256 _id) external view returns(string) {\n    require(isValidId(_id), \"Voting does not exist.\");\n\n    return votings[_id].title;\n  }\n\n  function votingEnd(uint256 _id) external view returns(uint256) {\n    require(isValidId(_id), \"Voting does not exist.\");\n\n    return votings[_id].end;\n  }\n\n  function isValidId(uint256 _id) internal view returns(bool) {\n    return (_id < nextId);\n  }\n}\n",
  "sourcePath": "/home/developer/Projects/voting-on-ether/contracts/VotingOffice.sol",
  "compiler": {
    "name": "solc",
    "version": "0.4.24+commit.e67f0147.Emscripten.clang"
  },
  "schemaVersion": "2.0.1",
  "updatedAt": "2018-08-18T13:48:09.829Z"
}